:020000040800F2
:10000000C832002015020008355B0008B14800081E
:100010009D5A000885090008716E00080000000064
:10002000000000000000000000000000AD640008B7
:10003000850D000800000000215F000891650008A0
:100040002F0200082F0200082F0200082F020008CC
:100050002F0200082F0200082F0200082F020008BC
:100060002F0200082F0200082F0200082F020008AC
:100070002F0200082F0200082F0200082F0200089C
:100080002F0200082F0200082F0200082F0200088C
:100090002F0200082F0200082F0200082F0200087C
:1000A0002F0200082F0200082F0200082F0200086C
:1000B000116600082F0200082F0200082F02000816
:1000C0002F0200082F0200082F0200082F0200084C
:1000D0002F0200082F020008E56D0008516E00088D
:1000E0009D0D00082F0200082F0200082F020008B3
:1000F0002F0200082F0200082F0200082F0200081C
:100100002F0200082F0200082F0200082F0200080B
:100110002F020008816C00081D6600082F020008ED
:100120002F0200082F0200082F0200082F020008EB
:1001300000F002F800F05FF80AA090E8000C82449A
:100140008344AAF10107DA4501D100F054F8AFF277
:10015000090EBAE80F0013F0010F18BFFB1A43F0A5
:100160000103184734C0000054C000000A444FF097
:10017000000C10F8013B13F0070408BF10F8014B06
:100180001D1108BF10F8015B641E05D010F8016B4B
:10019000641E01F8016BF9D113F0080F1EBF10F8AF
:1001A000014BAD1C0C1B09D16D1E58BF01F801CBD2
:1001B000FAD505E014F8016B01F8016B6D1EF9D555
:1001C0009142D6D37047000000230024002500266A
:1001D000103A28BF78C1FBD8520728BF30C148BFAA
:1001E0000B607047642900F07B80002070471FB5CA
:1001F0001FBD10B510BD00F0CFFA1146FFF7F7FF95
:1002000008F05CFB00F0EDFA03B4FFF7F2FF03BC6B
:1002100006F083FF0948804709480047FEE7FEE7EC
:10022000FEE7FEE7FEE7FEE7FEE7FEE7FEE7FEE7A6
:1002300004480549054A064B704700000F66000850
:1002400031010008C82C0020C8320020C82E002030
:10025000C82E0020704710B54C1084EA530404D512
:100260004042C1F1000138BF491E1B4204D5524231
:10027000C3F1000338BF5B1E00F076F914F0804F25
:1002800004D04042C1F1000138BF491E14F0004FB4
:1002900004D05242C3F1000338BF5B1E10BD000002
:1002A0000FB4044910B503AA029800F057FA10BC25
:1002B0005DF814FBF40000200FB41CB5074B06AA30
:1002C0007B4469460090059800F02FFA00206946AB
:1002D00000F03EFA1CBC5DF814FB00008D04000029
:1002E0002DE9F0410646002410687529314616A50F
:1002F00010D0AFF30080002802DA404213A507E0D7
:1003000031688A0701D512A502E0490704D511A575
:10031000012401E0AFF3008000210A2206F1240746
:1003200009E0B0FBF2FCB0FBF2F302FB1C00303042
:1003300078541846491C0028F3D123462A463046F3
:10034000BDE8F04100F092B9000000002D0000006F
:100350002B000000200000002DE9F0474FF0000ABC
:1003600089460446C0F820A02046E1688847002856
:1003700076D0252806D0D4E901219047206A401C78
:100380002062F1E7E168204600258847C4F81CA0F8
:1003900006460027C4F818A02A2E09D0304606F0D9
:1003A000B5FE38B304EB8708303EC8F8186019E092
:1003B00059F8041B204604EB87029161E1688847E5
:1003C000012F064618D1E069002820DA25F0200523
:1003D0001DE0D8F8180000EB800006EB4000303834
:1003E000C8F818002046E1688847064606F08EFEE9
:1003F0000028EED1012F0AD02E2E08D12046E16828
:1004000088477F1C0646022F45F02005C4DBA06903
:10041000002803DA404245F00105A061E80701D059
:1004200025F01005B6B1A6F14100192802D82036F2
:1004300045F400654A463146204625604D46FFF7A3
:10044000D1FE58B1012806D0ED1D25F0070000F1BE
:10045000080989E704E005F1040985E730468AE7E1
:10046000206ABDE8F08740EA010310B59B070FD171
:10047000042A0DD310C808C9121F9C42F8D020BA14
:1004800019BA884201D9012010BD4FF0FF3010BDCC
:100490001AB1D30703D0521C07E0002010BD10F89A
:1004A000013B11F8014B1B1B07D110F8013B11F860
:1004B000014B1B1B01D1921EF1D1184610BD02F059
:1004C000FF0343EA032242EA024200F002B84FF07F
:1004D00000020429C0F0128010F0030C00F01B8011
:1004E000CCF1040CBCF1020F18BF00F8012BA8BF1F
:1004F00020F8022BA1EB0C0100F00DB85FEAC17CE3
:1005000024BF00F8012B00F8012B48BF00F8012B95
:1005100070474FF0000200B51346944696462039C6
:1005200022BFA0E80C50A0E80C50B1F12001BFF4AC
:10053000F7AF090728BFA0E80C5048BF0CC05DF812
:1005400004EB890028BF40F8042B08BF704748BF60
:1005500020F8022B11F0804F18BF00F8012B7047D4
:10056000704770477047704753EA020C00F069808B
:100570002DE9F04B4FF00006002B1FBFB3FA83F5B7
:1005800003FA05F424FA05F65E4012BF1643B2FAE8
:1005900082F502FA05F4C5F120051EBF22FA05FC1A
:1005A00044EA0C04203556EA044C4FEA144418BFC0
:1005B000641C4FF000084FF00009904271EB030CEF
:1005C00039D3002919BFB1FA81F701FA07F6B0FA59
:1005D00080F700FA07F6C7F120071EBF20FA07FCD4
:1005E00046EA0C062037B6FBF4FCA7EB0507103FE4
:1005F00007F01F0BCBF120060CFA0BFB2CFA06F6CA
:1006000044BFB3460026202FA4BF5E464FF0000B28
:100610005BEA060C08BF4FF0010B19EB0B09ABFBB3
:10062000027C48EB0608C01B06FB02CC0BFB03CC8C
:1006300071EB0C01C1E70B46024641464846BDE856
:10064000F08B13B54FF000004FF00001AFF30080C6
:10065000BDE81C40704710B500F092F8006810BD6E
:1006600010B5044600F08CF8046010BD2DE9F04789
:100670000D4699469246044600F124080168880612
:1006800004D5E06921F01001216000E00120A842BA
:1006900001DD471B00E00027A1697A1902EB090080
:1006A000081AA0612078C00602D42046AFF300806B
:1006B000002608E0D4E901211AF806009047206AD4
:1006C000401C761C20624E45F4DB2078C0060AD51B
:1006D0002046AFF3008006E0D4E9012130209047A6
:1006E000206A401C2062381EA7F10107F4DC07E0F5
:1006F000D4E9012118F805009047206A401C2062C7
:10070000281EA5F10105F3DC2046AFF30080207818
:10071000000602D50220BDE8F0870120FBE70000BB
:1007200001694A1C02610878704700B58FB0CDE9B5
:1007300001310021059105497944CDE903101146A5
:100740006846FFF709FE0FB000BD0000E5FFFFFFA0
:100750000A6802F8010B0A6070470000074B70B589
:100760000D467B44FFF7E1FF0446284600F00CF8F5
:1007700010B14FF0FF3070BD204670BD7F7B000090
:1007800000487047642C0020007B00F08000704718
:1007900000487047642C00207546FFF7F9FFAE460D
:1007A00005006946534620F00700854618B020B57D
:1007B000FFF73EFDBDE820404FF000064FF0000778
:1007C0004FF000084FF0000B21F00701AC46ACE8F9
:1007D000C009ACE8C009ACE8C009ACE8C0098D4666
:1007E000704710B50446AFF300802046BDE81040C6
:1007F000FFF70ABD70B5044600688168C943C907A0
:1008000017D1816821F00101816001F09DFC05464E
:100810000AE000BF01F098FC401B022804D92068C0
:100820008068C043C00706D020688068C043C00706
:10083000F0D0002070BDA06A40F01000A062E06A15
:1008400040F00100E062012070BD0000F8B5002614
:100850000446009600688168C943C9072DD08168A5
:1008600041F001018160164816490068B0FBF1F0C3
:1008700000E0401E00900028FBD101F065FC054619
:1008800016E000BF01F060FC401B022810D9206870
:100890008068C043C0070BD0A06A40F01000A0627F
:1008A000E06A40F00100E06284F824600120F8BDB5
:1008B00020688068C043C007E4D10020F8BD000074
:1008C0003400002040420F000C49087818B10B2872
:1008D00001D00C2810D10A48406800280CD0A0F1A3
:1008E00015024F2A01D20B2005E0F1383B2801D236
:1008F0000C2000E000200870704700003A00002043
:10090000EC00002070B5054616480C46006809F05A
:10091000DDFE29460AF038F8064684F00040124C05
:10092000216909F033FF114909F0D2FD054610494C
:10093000E06809F0CDFD314609F028FF29460AF0AC
:1009400023F809F087FE0B490978032908D109F03B
:10095000BDFE216809F01AFFBDE8704009F07ABEBB
:1009600070BD000020000020140200200000C842DA
:100970000000C8C211010020014800F0D1BC0000F5
:100980008C020020FEE700002DE9F0410D4C0A46E4
:1009900007460B4E1046216809F0F8FE216B09F05E
:1009A00023FD0146084809F0F1FE05463146384668
:1009B00009F0ECFE294609F017FD2063BDE8F0813F
:1009C0000AD7A33C4001002048E17A3F2DE9F041DD
:1009D0000D4C0A4607460B4E1046216809F0D6FE1C
:1009E000216E09F001FD0146084809F0CFFE0546D9
:1009F0003146384609F0CAFE294609F0F5FC206662
:100A0000BDE8F0810AD7A33C4001002048E17A3FCD
:100A100038B5002000906B4601227521682007F050
:100A2000B7FE31A0FFF73CFC9DF8000068280CD011
:100A3000BFF34F8F35480168354A01F4E061114337
:100A40000160BFF34F8F00BFFDE708F053F80028A7
:100A500049D1782008F00CFD10B923A0FFF720FC45
:100A6000782007F079FF10B92AA0FFF719FCC820F9
:100A700008F0BEFC10B931A0FFF712FC07F0CEF869
:100A800010B938A0FFF70CFC4348044607F0F2FE0B
:100A90000546E01C07F0EEFE45EAC005A01D07F084
:100AA000E9FE45EA801080B207F078FA10B93BA061
:100AB000FFF7F6FB40F2731006F088FF10B941A073
:100AC000FFF7EEFBC82007F0D1F910B947A0FFF7F8
:100AD000E7FB08F01DFE012008F0B0FB002802D162
:100AE0004BA0FFF7DDFB38BD6D70755F7365745FFC
:100AF00073656E736F7220636F6D706C65746520C3
:100B00002E2E2E2E2E2E0D0A000000000CED00E0E1
:100B10000400FA056D70755F636F6E6669677572C4
:100B2000655F6669666F20636F6D706C65746520C4
:100B30002E2E2E2E2E2E0D0A000000006D70755FD9
:100B40007365745F73616D706C655F72617465204D
:100B5000636F6D706C657465202E2E2E2E2E2E0DFB
:100B60000A000000646D705F6C6F61645F6D6F748C
:100B7000696F6E5F6472697665725F6669726D77C0
:100B800061726520636F6D706C657465202E2E2E0A
:100B90002E2E2E0D0A000000BC000020646D705F38
:100BA0007365745F6F7269656E746174696F6E20CE
:100BB000636F6D706C657465202E2E2E2E2E2E0D9B
:100BC0000A000000646D705F656E61626C655F664F
:100BD00065617475726520636F6D706C65746520F6
:100BE0002E2E2E2E2E2E0D0A00000000646D705F3A
:100BF0007365745F6669666F5F7261746520636FA9
:100C00006D706C657465202E2E2E2E2E2E0D0A0012
:100C10006D70755F7365745F646D705F737461741C
:100C20006520636F6D706C657465202E2E2E2E2EE0
:100C30002E0D0A00124910B50A78242800D1B2B14D
:100C4000012A1CD10022232814D0242817D00D4CAF
:100C50004B78E0545B1CD8B2487014280FD94A7006
:100C60000A70BDE8104014210648FFF730BC01208F
:100C70000870F6E70A704A7000F07CFAF1E710BDE0
:100C80006402002080080020124930B401230A7851
:100C9000242800D1B2B1012A19D10022232813D06F
:100CA000242814D00C4C4B78E0545B1CD8B248700C
:100CB00014280CD94A700A708A7030BC1421064876
:100CC000FFF705BC0B70F8E70A704A708B7030BCF8
:100CD00070470000600200206C080020124930B408
:100CE00001230A78242800D1B2B1012A19D10022A7
:100CF000232813D0242814D00C4C4B78E0545B1CD0
:100D0000D8B2487014280CD94A700A708A7030BC66
:100D100014210648FFF7DBBB0B70F8E70A704A7036
:100D20008B7030BC70470000600200206C0800200F
:100D3000124930B401230A78242800D1B2B1012A23
:100D400019D10022232813D0242814D00C4C4B781E
:100D5000E0545B1CD8B2487014280CD94A700A7051
:100D60008A7030BC14210648FFF7B1BB0B70F8E75E
:100D70000A704A708B7030BC70470000600200201F
:100D80006C080020704706E00021491CC9B20A29FE
:100D9000FBD3401EC0B20028F6D170474FF48050FC
:100DA00000F0CABF0349002008600421024802F095
:100DB000EBBD000024040040040300200349002090
:100DC00008600421024802F0DFBD00002408004052
:100DD0004C03002072B6FEE72DE9F04F8DB00446BB
:100DE00005F07AFABC49DFF8F4B2BD4F0860012C77
:100DF0007ED04421D02003F05CFD04464321D02066
:100E000003F057FD04EB002009F078FC064646216C
:100E1000D02003F04EFD04464521D02003F049FDCB
:100E200004EB002009F06AFC82464821D02003F040
:100E300040FD04464721D02003F03BFD04EB002099
:100E400009F05CFC05463C21D02003F032FD04464D
:100E50003B21D02003F02DFD04EB002009F04EFCD7
:100E600081463E21D02003F024FD04463D21D020C0
:100E700003F01FFD04EB002009F040FC80464021F8
:100E8000D02003F016FD04463F21D02003F011FDD1
:100E900004EB002009F032FC0446B6F18E4F05DD6C
:100EA0004FF08F41304609F06FFD06465046BAF1CB
:100EB0008E4F04DD4FF08F4109F066FD8246B5F19B
:100EC0008E4F05DD4FF08F41284609F05DFD054648
:100ED0004846B9F18E4F04DD4FF08F4109F054FDC3
:100EE00081464046B8F18E4F06DD4FF08F4100E05D
:100EF00060E009F049FD8046B4F18E4F05DD4FF00A
:100F00008F41204609F040FD044686F000414846E6
:100F1000CBF8001009F03CFADFF8C891DFF8C8B14F
:100F20004A465B46CDE9090108F07EFD08F08EFCDB
:100F30000C90404609F02CFA4A465B46CDE9070181
:100F400008F072FD08F082FC0B90204609F020FAB0
:100F50004A465B46CDE9010108F066FD08F076FCE3
:100F60000090304609F014FADFF880914FF06636B1
:100F700032464B46CDE9050108F056FD08F066FC07
:100F80008046504609F004FA32464B46CDE903014B
:100F900008F04AFD08F05AFC06465548DFF854A10F
:100FA000DFF854B10078DFF8549102281ED00328EE
:100FB00043D089E005F0A6F85148524C39680160E9
:100FC000B4F9000009F082FBCBF80000B4F904008A
:100FD00009F07CFB4C4908604C48B0F9040009F06A
:100FE00075FB4B4908600DB0BDE8F08F88F00042FA
:100FF00000990B9803F008FE09F0CAF952465B46C7
:1010000008F012FD00224B4608F0E8FE08F01EFC36
:101010003860324600990C9803F022FF09F0B8F9C5
:1010200052465B4608F000FD00224B4608F0D6FE13
:1010300008F00CFC3749086046E0DDE901210B4669
:10104000DDE9070106F00EFB00224B4608F0C6FE64
:1010500052465B4608F0E8FC08F0F8FBDDE90121A8
:1010600080460B46DDE9090106F0FCFA00224B46FA
:1010700008F0B4FE52465B4608F0D6FC08F0E6FBEA
:101080000646DFF894A0DDE905014FF066394A46CF
:10109000534608F0C9FC08F0D9FB01464046FFF76B
:1010A00073FC80F000403860DDE903014A46534696
:1010B00008F0BAFC08F0CAFB01463046FFF786FC90
:1010C00080F00041134801600D48396801600E4806
:1010D00005600F48046086E7180000200800002023
:1010E000A80000208FC2F5285C1F9A40665E8D40E4
:1010F00000000020F1D4C853FB2109400080664065
:1011000004000020B00000200C000020B6000020E9
:101110001C000020A40000206666304010B500F0DE
:101120007DF8BDE81040014909F030BBC3F58040AF
:1011300010B50E4C0120C4F880010F2004F5C074D6
:1011400006F00CFC00222260094801880B060BD532
:101150004388890603EB9121AA2359434FF47A73FC
:10116000B1FBF3F14160028010BD0000000021429C
:10117000EC00002070B5254801788278303901EB09
:10118000C10303EB011102EB81014278204B02EB1A
:10119000820203EB42020A441E490A80C278447963
:1011A000303A02EBC20505EB021204EB820204792D
:1011B00004EB840403EB440422444A80164A127868
:1011C000092A21D18279047A303A02EBC20505EB73
:1011D000021204EB8202C47904EB840403EB44049E
:1011E00022448A80447AC57A303C807A04EBC40673
:1011F00006EB041400EB800005EB840403EB4000D5
:101200002044C88042430A8170BD0000800800204D
:10121000F0FDFFFF660200201101002010B5094813
:1012200000F068FC3221074800F098FB054800F008
:1012300021FA80B209F062FABDE81040024909F0D3
:10124000A5BA00008C0200203333533A2DE9F35F36
:1012500008F0ADFD2A4D00222B4608F0BFFD6FF0CF
:101260000106324609F037FC264F00223B4608F0C3
:10127000DBFBDFF894B000225B4608F0D5FB08F0FA
:10128000E5FA09F085F8DFF88480DFF884904246BB
:101290004B4608F0A3FD00221E4B08F09FFDDFF82F
:1012A00078A00022534608F0BFFB08F0CFFA1B4C91
:1012B0002060019808F07BFD00222B4608F08EFD8F
:1012C000324609F008FC00223B4608F0ADFB002244
:1012D0005B4608F0A9FB08F0B9FA09F059F8424654
:1012E0004B4608F07BFD00220A4B08F077FD0022F8
:1012F000534608F099FB08F0A9FA6060BDE8FC9F2E
:101300000000694000003E4000002640F1D4C85370
:10131000FB21094000C0504000002440080100208B
:10132000F8B500250446009500683949884209D07F
:101330003849884206D03849884203D07E2137A0F8
:1013400006F07EF894F8240001280BD0012084F8E0
:1013500024002046FFF74EFA2046FFF777FA0600F2
:1013600002D050E00220F8BDA06A20F4885040F07E
:101370000200A062022001F031F835490968B1FB92
:10138000F0F0400000E0401E00900028FBD12068F3
:10139000816841F00801816000F0D6FE074608E050
:1013A00000F0D2FEC01B0A2803D92068806800071D
:1013B00015D4206880680007F2D42068816841F065
:1013C0000401816000F0C0FE074612E000F0BCFEA0
:1013D000C01B0A280DD920688068400709D5A06A7B
:1013E00020F0020040F01000A06284F82450012098
:1013F000F8BD206880684007E8D4A06A20F00200A9
:1014000040F00100A06284F824503046F8BD00008E
:101410000024014000280140003C01402E2E2F53A3
:10142000544D3332463178785F48414C5F4472699D
:101430007665722F5372632F73746D333266317811
:10144000785F68616C5F6164635F65782E6300003C
:10145000340000202DE9F843002605460096006878
:10146000734F0C46B046B8420AD07249884207D042
:101470007149884204D040F2D67170A005F0E0FFB7
:10148000206830B3012824D0022822D0032820D09D
:1014900004281ED005281CD006281AD0072818D0EA
:1014A000082816D0092814D00A2812D00B2810D0EA
:1014B0000C280ED00D280CD00E280AD00F2808D0EA
:1014C000102806D0112804D040F2D7715BA005F097
:1014D000B7FF6068012822D0022820D003281ED040
:1014E00004281CD005281AD0062818D0072816D0A2
:1014F000082814D0092812D00A2810D00B280ED0A2
:101500000C280CD00D280AD00E2808D00F2806D0A1
:10151000102804D04FF4FB6148A005F091FFA068AB
:1015200090B1012810D002280ED003280CD0042836
:101530000AD0052808D0062806D0072804D040F293
:10154000D9713EA005F07CFF95F82400012812D047
:10155000012085F8240060681F2107280ED22B681F
:101560005A6B401E00EB800081408A432168814015
:101570000A435A631AE00220BDE8F8832A680D285E
:101580000AD2136BC01F00EB800081408B4321689F
:1015900081400B43136309E0D36A0D3800EB8000F0
:1015A00081408B43216881400B43D362206807212F
:1015B0002A680A280AD3D3680A3800EB4000814021
:1015C0008B43A16881400B43D36008E0136900EBB3
:1015D000400081408B43A16881400B431361206828
:1015E000102801D011281FD12868B84217D181686E
:1015F000090219D4816841F4000181602068102833
:1016000012D11A481A490068B0FBF1F000EB8000D3
:10161000400000E0401E00900028FBD104E0A86AD2
:1016200040F02000A862012685F824803046A3E718
:101630000024014000280140003C01402E2E2F5381
:10164000544D3332463178785F48414C5F4472697B
:101650007665722F5372632F73746D3332663178EF
:10166000785F68616C5F6164632E63003400002002
:1016700040420F0010B504460068084988420AD06D
:101680000749884207D00749884204D040F2E56103
:1016900005A005F0D5FE2068C06C10BD00240140F7
:1016A00000280140003C01402E2E2F53544D333270
:1016B000463178785F48414C5F4472697665722F95
:1016C0005372632F73746D3332663178785F68615B
:1016D0006C5F6164632E63002DE9F04704004FF0F6
:1016E00000057CD075492068754E884209D075493F
:1016F000884206D0B04204D040F2A91172A005F091
:101700009FFE606838B1B0F5006F04D04FF4D5711A
:101710006DA005F095FEA0684FF4807930B1484582
:1017200004D040F2AB1168A005F08AFE207B30B1F6
:10173000012804D04FF4D67163A005F081FEE06962
:101740004FF400284FF4402AB8B1B0F5003F14D050
:10175000B0F5C02F11D040450FD0B0F5202F0CD0E0
:1017600050450AD0B0F5802F07D0B0F5602F04D0D7
:1017700040F2AD1154A005F063FEA06800281CD013
:101780002069401E0F2804D940F2B1114EA005F087
:1017900057FE207D88B1012806D04FF4D9714AA0A8
:1017A00005F04EFE207D40B1A069401E072804D9F7
:1017B00040F2B51144A005F043FEA06A002728B905
:1017C000E76284F82470204600F09CF82046FFF77A
:1017D00011F8A16AC90600D430B1A06A00E06BE03C
:1017E00040F01000A06267E0A16A21F4885141F046
:1017F0000201A1622368E169B34202D1514500D1DF
:101800004146267BCC4641EA460261680A43A1680C
:10181000614509D0012907D05FF0000194F81480D8
:10182000B8F1010F02D00AE04946F7E7C6B1A66A4F
:1018300046F02006A662E66A46F00106E6625E68A9
:1018400026F469460E435E60236899682A4E31404B
:1018500011439960A16861450BD0012909D00CE0C2
:10186000DFF89880A66908EB46360E4346F400611F
:10187000E5E7218A0D05A5F580152168CB6A23F4DB
:1018800070032B43CB62216889681D4B194091423C
:1018900008D1E762A16A21F0020141F00101A162D1
:1018A000BDE8F087A06A20F0020040F01000A062BE
:1018B000E06A40F00100E0620120F1E7002401400D
:1018C000003C0140002801402E2E2F53544D33324E
:1018D000463178785F48414C5F4472697665722F73
:1018E0005372632F73746D3332663178785F686139
:1018F0006C5F6164632E6300FDF7E1FF00E0FFFFB2
:10190000FE0E1FFF00B585B00021009101910291EC
:10191000039100680E49884218D10E48816941F44C
:1019200000718161816901F400710491816941F064
:10193000040181618069694600F004000490202060
:10194000009003200190044800F002FA05B000BDA9
:101950000024014000100240000801402DE9F84336
:1019600000270D46044600970068504988420AD077
:101970004F49884207D04F49884204D040F2B341D2
:101980004DA005F05DFD00F0DFFB8046206881681A
:10199000C90508D5A06A40F02000A06284F8247030
:1019A0000120BDE8F8834168C90503D4C06A10F47A
:1019B000700F2AD0022000F011FD4B490968B1FBDD
:1019C000F0F62068036949490B424FEA61014FEA8A
:1019D000A1121FD1C3684FEA611C13EA0C0F19D181
:1019E00003690B4225D1C068104222D1142023E0A4
:1019F000681C0AD02DB100F0A7FBA0EB0800A8429C
:101A000003D920680068800725D520680068800712
:101A1000EED52DE003690B4202D1C168114206D018
:101A2000026933490A4206D1C068084203D15420F2
:101A300002E0292000E0FC204643009816E0681CE4
:101A400011D02DB100F080FBA0EB0800A8420AD90C
:101A50000098B04207D2A06A40F00400A06284F867
:101A6000247003209DE70098401C0090B042E6D30C
:101A700021686FF012000860A06A40F40070A06254
:101A800020688068C0F3424007280CD1207B50B901
:101A9000A06A20F48070A062A06AC00403D4A06A87
:101AA00040F00100A06200207BE70000002401401C
:101AB00000280140003C01402E2E2F53544D33325C
:101AC000463178785F48414C5F4472697665722F81
:101AD0005372632F73746D3332663178785F686147
:101AE0006C5F6164632E63003400002024499224FB
:101AF0004992240070B5044600683449344D884248
:101B000009D0A84207D03349884204D040F211419D
:101B100031A005F095FC94F8240001280DD0012097
:101B200084F824002046FEF791FE02004FF00000EA
:101B300005D084F82400104670BD022070BDA16A53
:101B400040F20123994341F48071A1621F49236847
:101B5000091DAB4218D10E6816F4702F14D0A66A76
:101B600046F48016A6620E68760505D5A66A26F4A8
:101B7000005646F48056A662A66AF6040AD5E66ABE
:101B800026F00606E66206E0A66A26F48016A6623D
:101B90005E68E9E7E06284F824006FF002001860F4
:101BA00020688368C3F34243072B05D1A84208D1BC
:101BB000096811F4702F04D0816841F480118160AC
:101BC000B9E7816841F4A001F9E700000024014071
:101BD00000280140003C01402E2E2F53544D33323B
:101BE000463178785F48414C5F4472697665722F60
:101BF0005372632F73746D3332663178785F686126
:101C00006C5F6164632E630070B5044600F09CFA5B
:101C10000546601C02D004480078044400F094FAA1
:101C2000401BA042FAD370BD280000202DE9F84FD8
:101C3000B0F5805F69D1364F388808B1401E3880D2
:101C400004F036FC33480078FFF7C6F8002004F0B3
:101C500031FB0090012004F02DFB404283460146F9
:101C60000098FFF7F3FA2C482C4E01683068FEF715
:101C700049FE05465946009805F0FCF804462848F8
:101C8000006804F09DFF2A19264D1118DFF898808E
:101C9000101A2960C8F800004446084604F030F9DC
:101CA0002860206804F02CF9DFF8809040F6282A9C
:101CB00020604A465146286804F02BF928604A46BD
:101CC0005146206804F025F9206019485B46009AC7
:101CD0003168006804F026F9164C08B10120207024
:101CE0005A460099306804F07BF908B10020207052
:101CF000F968306804F094FF002806D1D8F8001085
:101D00002868BDE8F84F04F013BCBDE8F88F000068
:101D1000F80000200000002008000020040000203F
:101D20000C0000201000002014000020D8F5FFFF58
:101D30001C00002001000020044910B50A6802427E
:101D400002D00860FFF772FF10BD000014040140CC
:101D50002DE9F84F0027DFF8BCA2DFF8BCB20D4632
:101D60000446B946504514D05C4512D0AB48844275
:101D70000FD0AB4884420CD0AA48844209D0AA486C
:101D8000844206D0A948844203D0BD21A8A005F012
:101D900057FB28680104090C01D0000C03D0BE21B8
:101DA000A3A005F04DFB686800281FD00128FCD0D7
:101DB0001128FAD00228F8D01228F6D0A949884272
:101DC000F3D0A9498842F0D0A8498842EDD0A8496B
:101DD0008842EAD0A7498842E7D0A7498842E4D0A0
:101DE0000328E2D0BF2192A005F02AFB0BE10120DD
:101DF00000FA07F801EA0806464574D1544514D0A4
:101E00005C4512D0854884420FD0854884420CD06E
:101E10008448844209D08448844206D0834884425E
:101E200003D0CD2182A005F00BFB8E4869680A1A09
:101E3000814259D00EDC032975D006DC002953D02D
:101E4000012919D0022969D131E0112921D01229A3
:101E500064D13AE0B2F5881F46D006DCB2F5803F87
:101E600042D0B2F5801F59D13EE0B2F5001F3BD001
:101E7000B2F5041F52D137E0E868022807D00128E4
:101E800005D0032803D0D52169A005F0D9FAE86868
:101E90003EE0E868022807D0012805D0032803D0D7
:101EA000DC2163A005F0CCFAE868001D30E0E868AA
:101EB000022807D0012805D0032803D0E3215CA025
:101EC00005F0BEFAE868083022E0E868022807D08A
:101ED000012805D0032803D0EA2155A005F0B0FA67
:101EE000E8680C3014E08DE0A86880B1012811D0BA
:101EF000022807D0F7214EA005F0A2FAA86830B159
:101F0000012807D04FF00809C4F8148006E0042027
:101F1000814603E04FF00809C4F81080FF2E05D871
:101F2000224605E0FFE74FF00000F1E704F104026C
:101F30004FEA870001D9A0F1200013684FF00F018C
:101F400001FA00FC23EA0C0309FA00FC43EA0C0343
:101F500013606868C00055D54848826942F00102A4
:101F60008261806927F0030200F00100009044487C
:101F700013189868BA07120F91408843544501D14D
:101F8000002118E05C4501D1012114E023498C4275
:101F900001D102210FE022498C4201D103210AE044
:101FA00020498C4201D1042105E01F498C4201D116
:101FB000052100E006219140014399606868C00254
:101FC0003048016801D5314300E0B14301606868E1
:101FD00080022D48016801D5314300E0B143016022
:101FE000686880032948016801D5314300E0B143A6
:101FF00001606868C0032648016801D5314300E0EC
:10200000B14301607F1C2E683146FE407FF4EFAE85
:10201000BDE8F88F00080140000C014000100140AD
:102020000014014000180140001C01400020014044
:102030002E2E2F53544D3332463178785F48414C21
:102040005F4472697665722F5372632F73746D33B8
:1020500032663178785F68616C5F6770696F2E6394
:1020600000000000000011100000211000003110DD
:102070000000121000002210000032100010024078
:1020800000000140080401400C0401400404014028
:102090000004014070B50C00054604D14FF4DA711C
:1020A00003A005F0CDF9A868204000D0012070BD44
:1020B0002E2E2F53544D3332463178785F48414CA1
:1020C0005F4472697665722F5372632F73746D3338
:1020D00032663178785F68616C5F6770696F2E6314
:1020E0000000000070B515460C00064604D14FF400
:1020F000EA7108A005F0A4F945B1012D04D040F221
:10210000D51104A005F09CF9346170BD2004306144
:1021100070BD00002E2E2F53544D33324631787847
:102120005F48414C5F4472697665722F5372632F2A
:1021300073746D3332663178785F68616C5F677095
:10214000696F2E630000000001488068704700003E
:10215000280000200248816802781144816070479D
:1021600028000020074810B5016841F01001016007
:10217000032000F0F7F8002000F006F800F024F843
:10218000002010BD0020024070B50D4D04464FF4F4
:102190007A712878B1FBF0F00A490968B1FBF0F0D8
:1021A00000F009FE48B9102C07D200222146501E2B
:1021B00000F08CF800206C6070BD012070BD000044
:1021C00028000020340000200E4808B5816941F045
:1021D00001018161816901F001010091C16941F052
:1021E0008051C161C06900F080500090052000F06E
:1021F000B9F80548416821F0E06141F000714160A3
:1022000008BD0000001002400000014010B50400AD
:1022100003D5CD2109A005F013F9002C0DDB04F046
:102220001F01012088406109890001F1E021C1F806
:102230008001BFF34F8FBFF36F8F10BD2E2E2F5332
:10224000544D3332463178785F48414C5F4472696F
:102250007665722F5372632F73746D3332663178E3
:10226000785F68616C5F636F727465782E630000DD
:1022700010B5040003D5BD2107A005F0E1F8002C3E
:1022800009DB04F01F01012088406109890001F188
:10229000E021C1F8000110BD2E2E2F53544D3332D2
:1022A000463178785F48414C5F4472697665722F99
:1022B0005372632F73746D3332663178785F68615F
:1022C0006C5F636F727465782E63000070B515469D
:1022D0000C460646102A03D3A92114A005F0B0F835
:1022E000102C03D3AA2111A005F0AAF81C480068FD
:1022F000C0F30223C3F107022046042A00D90422B6
:10230000191D072901D2002300E0DB1E012404FA75
:1023100002F1491E014099409C40641E2C4021431B
:102320003046BDE8704004F078BE00002E2E2F53DA
:10233000544D3332463178785F48414C5F4472697E
:102340007665722F5372632F73746D3332663178F2
:10235000785F68616C5F636F727465782E630000EC
:102360000CED00E010B5044607280BD0062C09D070
:10237000052C07D0042C05D0032C03D0912108A0F4
:1023800005F05EF8134904F0070208684FF6FF03F2
:10239000184040EA0220104A1043086010BD0000B7
:1023A0002E2E2F53544D3332463178785F48414CAE
:1023B0005F4472697665722F5372632F73746D3345
:1023C00032663178785F68616C5F636F72746578CC
:1023D0002E6300000CED00E00000FA0570B5064623
:1023E0000025C0070CD1B0070AD4700708D4300705
:1023F00006D4F00604D44FF4CA712AA005F020F8E0
:10240000354C042E27D004DC012E28D0022E3ED1DC
:102410003FE0082E1FD0102E39D160682168C90115
:1024200035D52E49C0F38342C0038D5C09D5606861
:10243000891EC0F34040085C2949B1FBF0F04543D8
:1024400001E0284845436068400220D46800032129
:10245000B0FBF1F51BE000F043FA054617E0216AF6
:10246000C1F30120012803D1890701D5C5030EE07E
:10247000022805D1616A890702D549F6404506E080
:10248000032804D12068800301D54FF22445284653
:1024900070BD00F015FA6168C1F38131491C490033
:1024A000D6E700002E2E2F53544D33324631787824
:1024B0005F48414C5F4472697665722F5372632F97
:1024C00073746D3332663178785F68616C5F726304
:1024D000635F65782E63000000100240C2AB000805
:1024E00000127A0000093D002DE9F8430446006817
:1024F000524DC1070ED1810773D441077ED4010725
:10250000FCD4C0067BD46A214DA004F099FF20784A
:10251000C00763D06068002660B1B0F5807F09D045
:10252000B0F5007F06D0B0F5407F03D0722144A003
:1025300004F086FFE869C00008D4E86940F08050E4
:10254000E861E869012600F0805000904948016880
:10255000C90512D40168804641F480710160FFF71B
:10256000F3FD074605E000BFFFF7EEFDC01B642842
:1025700023D8D8F80000C005F6D5286A10F44070BA
:1025800021D0A18801F4407181421CD0286A3A49C7
:10259000012220F440700A6000220A602862C0070D
:1025A00011D0FFF7D1FD074641F2883808E000BF9F
:1025B000FFF7CAFDC11B414502D90320BDE8F883DE
:1025C000286A8007F4D5286A616820F440700843BF
:1025D00028621EB1E86920F08050E8612078800709
:1025E00017D5A06878B1B0F5804F0CD0B0F5004F8A
:1025F00009D0B0F5404F06D0B72101E009E00BE06B
:102600000FA004F01DFF6868A16820F44040084353
:1026100068602078C0060FD56069B0F5800F05D0DE
:1026200020B140F2131106A004F00AFF6868616946
:1026300020F48000084368600020BFE700100240DB
:102640002E2E2F53544D3332463178785F48414C0B
:102650005F4472697665722F5372632F73746D33A2
:1026600032663178785F68616C5F7263635F65784A
:102670002E63000000700040400442422DE9F04704
:102680000F46050078D02868C1070AD1810708D411
:10269000410706D4000704D440F236316FA004F09D
:1026A000CFFE47B1012F06D0022F04D040F23731C0
:1026B0006AA004F0C5FE754E306800F00700B8420D
:1026C00009D2306820F0070038433060306800F0ED
:1026D0000700B84277D128686D4C810729D540079B
:1026E00003D5606840F4E06060602878000703D597
:1026F000606840F460506060A868A0B1802812D083
:10270000902810D0A0280ED0B0280CD0C0280AD015
:10271000D02808D0E02806D0F02804D040F25D315F
:102720004EA004F08DFE6068A96820F0F000084318
:1027300060602878C00737D0686868B101281CD06D
:1027400002281DD04FF4597144A004F079FE686846
:10275000012812D0022813D020688007002832DA1E
:102760006068696820F0030008436060FFF7ECFCD4
:10277000804641F2883910E025E020688003EDE7CB
:1027800020688001EAE700BFFFF7DEFCA0EB08014C
:10279000494502D90320BDE8F0876068696800F008
:1027A0000C00B0EB810FEFD1306800F00700B842A9
:1027B0000BD9306820F0070038433060306800F0F3
:1027C0000700B84201D00120E5E728784FF4806681
:1027D00040074FF4A0674FF4C0684FF4E06914D588
:1027E000E86860B1B0420AD0B84208D0404506D08F
:1027F000484504D040F2A23118A004F021FE6068E0
:10280000E96820F4E060084360602878000715D587
:10281000286960B1B0420AD0B84208D0404506D01D
:10282000484504D040F2A9310CA004F009FE6068CC
:10283000296920F4605040EAC100606000F050F85F
:102840006168144AC1F30311515CC8401249086021
:1028500012480068FFF798FC00209CE72E2E2F53AB
:10286000544D3332463178785F48414C5F44726949
:102870007665722F5372632F73746D3332663178BD
:10288000785F68616C5F7263632E630000200240B2
:1028900000100240D2AB0008340000202C000020C1
:1028A0000448054900684968044AC1F30221515CA3
:1028B000C84070473400002000100240E2AB00081E
:1028C0000448054900684968044AC1F3C221515CC3
:1028D000C84070473400002000100240E2AB0008FE
:1028E0000E4A51680E4801F00C03042B11D0082B3E
:1028F0000FD10C48C1F38343C903C05C0AD55168AA
:10290000084AC1F34041921E515C054A5043B0FB56
:10291000F1F070470449484370470000001002403E
:1029200000127A00B0AB000800093D002DE9F84F15
:1029300004007DD0FB4EFC4D20684FF0010A4FF0A3
:1029400000084FF4803960B1C1070DD1810762D40E
:1029500001076ED440076DD440F26511F3A004F076
:102960006FFD2078C00753D060684FF4A02740B1B6
:10297000484506D0B84204D040F26B11EBA004F0F9
:102980005FFD6868C0F38100012807D06868C0F364
:102990008100022809D16868C00306D52868800331
:1029A00036D560680028C4D032E06068484503D15D
:1029B000286840F4803009E008B1B8420DD028689A
:1029C00020F480302860286820F480202860606827
:1029D00088B1FFF7B9FB074609E0286840F480207A
:1029E0002860E5E7FFF7B0FBC01B642877D82868AC
:1029F0008003F7D50CE0FFF7A7FB074605E000BF13
:102A0000FFF7A2FBC01B6428F0D828688003F7D426
:102A1000207880074ED5206930B1012804D040F2DB
:102A20009F11C2A004F00CFD60691F2808D902E0C4
:102A300096E042E07BE04FF4D071BCA004F000FDD2
:102A4000686810F00C0F07D06868C0F38100022896
:102A500009D16868C00306D42868800714D52069A6
:102A600001287DD110E02069B0B1C6F800A0FFF7C1
:102A70006BFB074605E000BFFFF766FBC01B0228A3
:102A8000B4D828688007F7D52868616920F0F80075
:102A900040EAC10028600DE0C6F80080FFF754FB53
:102AA000074604E0FFF750FBC01B02289ED82868A9
:102AB0008007F7D42078000736D5A84FA06920B347
:102AC000012806D04FF4F07198A004F0B9FCA06979
:102AD000D8B1C7F800A0FFF737FB074605E00AE1C9
:102AE000FFF732FBC01B02288ED8686A8007F7D533
:102AF0009B484FF4FA510068B0FBF1F0009000BF22
:102B00000098411E0091FAD20EE0C7F80080FFF74E
:102B10001BFB074605E000BFFFF716FBC01B0228A2
:102B2000AED8686A8007F7D4207840076ED5E06891
:102B3000002740B1012806D0052804D040F20F211B
:102B40007AA004F07DFCE869C00008D4E86940F090
:102B50008050E861E869012700F08050009000E0B3
:102B600025E180480168C90512D4016841F48071EB
:102B70000160FFF7E9FA834606E000BFFFF7E4FAD9
:102B8000A0EB0B00642891D876480068C005F5D505
:102B9000E06801280AD008B1052811D0286A20F081
:102BA00001002862286A20F0040002E0286A40F050
:102BB00001002862E068A8B1FFF7C6FA83460DE07D
:102BC000286A40F004002862F0E700BFFFF7BCFA73
:102BD000A0EB0B0141F28830814285D8286A80073A
:102BE000F4D50EE0FFF7B0FA834607E0FFF7ACFA42
:102BF000A0EB0B0141F2883081427CD8286A800723
:102C0000F4D41FB1E86920F08050E861E069002841
:102C100072D0012809D0022807D040F2AD2143A08C
:102C200004F00EFCE069002866D06868C0F38100FB
:102C30000228E06974D0022805D0C6F86080FFF74A
:102C400083FA0446A2E0206A30B1484504D040F23D
:102C5000B62136A004F0F4FB606A70B3B0F5802FA3
:102C60002BD0B0F5002F28D0B0F5402F25D0B0F5EF
:102C7000801F22D0B0F5A01F1FD0B0F5C01F1CD000
:102C8000B0F5E01F19D0B0F5001F16D0B0F5101F39
:102C900013D0B0F5201F10D0B0F5301F0DD0B0F517
:102CA000401F0AD0B0F5501F07D0B0F5601F04D008
:102CB00040F2B7211DA004F0C3FBC6F86080FFF707
:102CC00043FA074605E000BFFFF73EFAC01B0228A3
:102CD00059D828688001F7D4206A484512D1A068E5
:102CE00038B1B0F5003F04D040F2CD210FA004F080
:102CF000A7FB686801E046E05BE0A16820F40030D3
:102D000008436860D4E908010843696821F4741134
:102D100008436860C6F860A0FFF716FA044628E08A
:102D200038E0000000004242001002402E2E2F53D7
:102D3000544D3332463178785F48414C5F44726974
:102D40007665722F5372632F73746D3332663178E8
:102D5000785F68616C5F7263632E63008004424237
:102D60003400002000700040FFF7EEF9001B02283D
:102D700009D828688001F7D51BE000BFFFF7E4F908
:102D8000001B022802D90320BDE8F88F28688001C3
:102D9000F4D40EE00128F7D06868226A00F480318C
:102DA000914204D1616A00F47010884201D0012080
:102DB000EAE70020E8E710B5401EB0F1807F01D3BC
:102DC000012010BD4FF0E02460610F21601704F076
:102DD00024F90020A06107202061002010BD704769
:102DE0007047000070B50C46054600683E498842B1
:102DF00007D03E49884204D040F2F1713CA004F073
:102E00001FFB2068B0F5006F05D020B140F2F271D1
:102E100037A004F015FB6068B0F5806F05D020B1D5
:102E200040F2F37132A004F00BFBA06868B1B0F57A
:102E3000807F0AD0B0F5007F07D0B0F5407F04D086
:102E400040F2F4712AA004F0FBFAE068FF2804D9EC
:102E500040F2F57126A004F0F3FA2069B0F5805F26
:102E600005D020B140F2F67121A004F0E9FA6069C2
:102E700038B1B0F5005F04D040F2F7711CA004F047
:102E8000DFFAE069B0F5804F05D020B14FF4FF6163
:102E900017A004F0D5FA95F83C00012822D00120B3
:102EA00085F83C00E068A26820F440701043626836
:102EB00020F480601043226820F4006010432269EF
:102EC00020F480501043626920F400501043E269FE
:102ED000002120F4804010432A68506485F83C109B
:102EE000002070BD022070BD002C01400034014064
:102EF0002E2E2F53544D3332463178785F48414C53
:102F00005F4472697665722F5372632F73746D33E9
:102F100032663178785F68616C5F74696D5F65787F
:102F20002E6300002DE9F05F04460068364E374FEF
:102F3000DFF8DC80DFF8DC90DFF8DCA00D464FF036
:102F4000804BB04214D0B84212D0584510D0404502
:102F50000ED048450CD050450AD03049884207D0A1
:102F60002F49884204D040F2B4712EA004F068FAD0
:102F7000286890B1102810D020280ED030280CD00E
:102F800040280AD0502808D0602806D0702804D0E5
:102F900040F2B57123A004F053FA6868802805D088
:102FA00020B140F2B6711FA004F04AFA94F83C0038
:102FB000012827D0012284F83C20022084F83D001B
:102FC000216848688B6820F0700C286840EA0C0083
:102FD00048602068B04209D0B84207D0584505D0B3
:102FE000404503D0484501D0504504D1696823F0DD
:102FF00080031943816084F83D20002084F83C0060
:10300000BDE8F09F0220FBE7002C014000340140A6
:103010000004004000080040000C00400010004088
:10302000001400402E2E2F53544D33324631787801
:103030005F48414C5F4472697665722F5372632F0B
:1030400073746D3332663178785F68616C5F746970
:103050006D5F65782E63000010B5040051D03C49C7
:103060002068884219D03B49884216D0B0F1804F81
:1030700013D03949884210D0384988420DD0384998
:1030800088420AD03749884207D03749884204D05D
:1030900040F2131135A004F0D3F9A06860B11028F4
:1030A0000AD0202808D0402806D0602804D04FF449
:1030B0008A712EA004F0C4F9206950B1B0F5807F68
:1030C00007D0B0F5007F04D040F2151127A004F01E
:1030D000B7F9E0684FF6FE71401E884204D94FF4FC
:1030E0008B7122A004F0ACF9A06930B1802804D023
:1030F00040F217111DA004F0A3F994F83D0010B19F
:1031000007E0012010BD002084F83C00204600F0BC
:1031100045F8022084F83D00211D206803F08AFA5A
:10312000012084F8460084F83E0084F83F0084F8CB
:10313000400084F8410084F8420084F8430084F899
:10314000440084F8450084F83D00002010BD0000D4
:10315000002C014000340140000400400008004001
:10316000000C004000100040001400402E2E2F5391
:10317000544D3332463178785F48414C5F44726930
:103180007665722F5372632F73746D3332663178A4
:10319000785F68616C5F74696D2E630000B585B0FF
:1031A0000021009101910291039101682148B1F140
:1031B000804F15D0204A91422FD1C16941F01001B2
:1031C000C161C069022200F0100004900321362082
:1031D000FFF77CF85FF03600FFF74AF805B000BD56
:1031E000C16941F00101C161C16901F001010491AE
:1031F000816941F0040181618069694600F0040041
:103200000490022000900D48FEF7A2FD0122114615
:103210001C20FFF75BF81C20DEE7094A9142DDD154
:10322000816941F400518161806900F4005004908B
:10323000D4E70000001002400010004000080140E8
:10324000003401402DE9F04707460068234C244D27
:10325000244EDFF89480DFF894904FF0804AA0422B
:1032600014D0A84212D0504510D0B0420ED04045E4
:103270000CD048450AD01E49884207D01D498842D3
:1032800004D04FF4E8711CA004F0DAF897F83D0080
:10329000012802D00120BDE8F087022087F83D0018
:1032A0003868C16841F00101C1603868A04209D0A6
:1032B000A84207D0504505D0B04203D0404501D0C8
:1032C000484504D1816801F00701062903D001684F
:1032D00041F0010101600020DDE70000002C014009
:1032E000003401400004004000080040000C004091
:1032F00000100040001400402E2E2F53544D333246
:10330000463178785F48414C5F4472697665722F28
:103310005372632F73746D3332663178785F6861EE
:103320006C5F74696D2E63002DE9F05F054690F8BF
:103330003C000C464FF0000B01283ED0012085F8E0
:103340003C00022085F83D0020684FF480594FF47E
:10335000005A484515D0702813D0504511D0402848
:103360000FD050280DD060280BD050B1102808D0B5
:10337000202806D0302804D041F2BE41BDA004F080
:103380005FF82968886820F0770020F47F40886023
:103390002068C449C44AC54BC54EC64F4FF0804C47
:1033A0004FF40048502872D00FDC202804D007DCEE
:1033B0000028FBD010286BD13CE10220BDE8F09F33
:1033C0003028F9D04028F6D105E160287DD070285A
:1033D0005FD0484542D05045EDD1286888420ED094
:1033E00090420CD060450AD0984208D0B04206D036
:1033F000B84204D041F2E9419EA004F021F8A0684F
:1034000058B1484509D0504507D0B0F5405F04D0C9
:1034100041F2EC4197A004F013F86068404509D0F0
:1034200040B1022806D00A2804D041F2ED4191A013
:1034300004F006F8E0680F2804D941F2EE418DA0AF
:1034400003F0FEFFD4E90121E368286803F090F956
:103450002868816841F48041816002E128688842DF
:10346000FBD09042F9D06045F7D09842F5D0B042F9
:10347000F3D0B842F1D090498842EED08F498842CB
:10348000EBD041F2CA417BA003F0DAFFE9E042E071
:10349000E5E0286888420ED090420CD060450AD002
:1034A000984208D0B04206D0B84204D041F2D1418F
:1034B00070A003F0C5FFA06868B148450BD0504527
:1034C00009D0B0F5405F06D000E053E041F2D441AE
:1034D00068A003F0B5FF6068404509D040B10228FC
:1034E00006D00A2804D041F2D54162A003F0A8FF1B
:1034F000E0680F2804D941F2D6415EA003F0A0FF96
:10350000D4E90121E368286803F032F9286881686A
:1035100041F07701A0E7286888420ED090420CD095
:1035200060450AD0984208D0B04206D0B84204D0D4
:1035300041F2FD414FA003F083FF6068404509D090
:1035400040B1022806D00A2804D04FF4A85149A05F
:1035500003F076FFE0680F2804D941F2015145A03D
:1035600003F06EFFE2686168286803F0B3FA502147
:1035700028682DE0286888420ED090420CD0604523
:103580000AD0984208D0B04206D0B84204D041F2E6
:103590000D5138A003F054FF6068404509D040B198
:1035A000022806D00A2804D041F2105131A003F0BD
:1035B00047FFE0680F2804D941F211512DA003F014
:1035C0003FFFE2686168286803F0CCFA6021286850
:1035D00003F0D8F845E0286888420ED090420CD01D
:1035E00060450AD0984208D0B04206D0B84204D014
:1035F00041F21D511FA003F023FF6068404509D030
:1036000040B1022806D00A2804D04FF4A95119A0CD
:1036100003F016FFE0680F2804D941F2215115A0EC
:1036200003F00EFFE2686168286803F053FA402156
:103630002868CDE7286888420ED090420CD06045BB
:103640000AD0984208D0B04206D0B84204D041F225
:10365000305108A003F0F4FE21682868B8E74FF065
:10366000010B012085F83D00002085F83C005846FC
:10367000A4E600002E2E2F53544D33324631787875
:103680005F48414C5F4472697665722F5372632FB5
:1036900073746D3332663178785F68616C5F74691A
:1036A0006D2E6300002C01400034014000040040F6
:1036B00000080040000C00400010004000140040D2
:1036C0002DE9F0410D4604007ED07B4920688842F8
:1036D00013D07A49884210D0B0F1804F0DD078498C
:1036E00088420AD07749884207D07749884204D077
:1036F00040F6D83175A003F0A3FEA06860B1102891
:103700000AD0202808D0402806D0602804D040F6EF
:10371000D9316EA003F094FE206950B1B0F5807FDE
:1037200007D0B0F5007F04D040F6DA3167A003F08F
:1037300087FEA06930B1802804D040F6DB3163A059
:1037400003F07EFE2868012808D0022806D003284E
:1037500004D040F6DC315DA003F072FEA8680128B9
:1037600008D0022806D0032804D040F6DD3157A047
:1037700003F066FEA869012808D0022806D00328B5
:1037800004D040F6DE3151A003F05AFE686830B133
:10379000022804D040F6DF314CA003F051FE6869E6
:1037A00030B1022804D04FF43E6148A003F048FE37
:1037B000E86860B104280AD0082808D00C2806D090
:1037C00040F6E13141A000E02DE003F039FEE86968
:1037D00050B1042808D0082806D00C2804D040F6A0
:1037E000E2313AA003F02CFE28690F2804D940F6F4
:1037F000E33136A003F024FE286A0F2804D940F6EE
:10380000E43132A003F01CFEE0684FF6FE71401E6A
:10381000884204D940F6E5312CA003F011FE94F85B
:103820003D0018B108E00120BDE8F081002084F8D7
:103830003C00204600F062F8022084F83D00206839
:10384000816844F2070291438160211D206802F0E3
:10385000F1FE216888688A690E6A2B68AF690343A4
:1038600040F20330824342EA0722A868EF6910431E
:103870004FF6FC429043EA6840EA07200243286979
:103880002F6A000140EA073010436A686D6926F02C
:10389000220646EA05152A438B602168886154F8A0
:1038A000460B0262012004F81F09E0752076E076DD
:1038B0002077A0750020B7E7002C014000340140BC
:1038C0000004004000080040000C00402E2E2F5342
:1038D000544D3332463178785F48414C5F447269C9
:1038E0007665722F5372632F73746D33326631783D
:1038F000785F68616C5F74696D2E630000B585B098
:10390000002100910191029103911A4B02681A481B
:10391000C0219A4213D1C26942F00202C261C26957
:1039200002F002020492826942F00402826180691C
:10393000009100F0040004906946104815E0104B17
:103940009A4214D1C26942F00402C261C26902F013
:1039500004020492826942F0080282618069009147
:1039600000F00800049069460648FEF7F1F905B03A
:1039700000BD0000000400400010024000080140AB
:1039800000080040000C01402DE9F04790F83E800F
:103990008946044690F83F7090F8426090F8435092
:1039A00000682D49884213D02C49884210D0B0F1CC
:1039B000804F0DD02A4988420AD02A49884207D030
:1039C0002949884204D040F6954128A003F038FDEB
:1039D0000220B9F1000F06D0B9F1040F10D0B8F1F0
:1039E000010F1CD115E0B8F1010F18D1012E16D12D
:1039F00084F83E0084F8420001220021206821E082
:103A0000012F0CD1012D0AD184F83F0084F8430026
:103A100015E0012F03D1012E01D1012D02D001208B
:103A2000BDE8F08784F83E0084F83F0084F8420047
:103A300084F8430001220021206802F041FE0122A7
:103A40000421206802F03CFE2068016841F0010179
:103A500001600020E4E70000002C01400034014038
:103A60000004004000080040000C00402E2E2F53A0
:103A7000544D3332463178785F48414C5F44726927
:103A80007665722F5372632F73746D33326631789B
:103A9000785F68616C5F74696D2E63002DE9F04199
:103AA000254CA04245D1254D2888010641D4410628
:103AB00041F2111640F244471BD540F080002880A7
:103AC0000421204600F09EFD68802068016A314292
:103AD00006D1016A394203D1016821F00101016078
:103AE0002068016A21F0A00101622068016A016278
:103AF0001BE000216980402028802068026A324251
:103B000006D1026A3A4203D1026822F00102026041
:103B1000206841622068016A21F0A00101622068EA
:103B2000016A41F0200101622068016841F0010151
:103B30000160BDE8F0810000BC020020EC00002024
:103B40002DE9F84F054600200090864F2868DFF8E1
:103B50001882DFF81892DFF818A2DFF818B21646BC
:103B60000C46B8420FD040450DD0B0F1804F0AD07E
:103B7000484508D0504506D0584504D041F21901B7
:103B80007DA003F05DFC206840B1022806D00A2821
:103B900004D041F21A0178A003F052FC60680128B9
:103BA00008D0022806D0032804D041F21B0172A0DD
:103BB00003F046FCA06850B1042808D0082806D0BD
:103BC0000C2804D041F21C016BA003F039FCE06822
:103BD0000F2804D941F21D0167A003F031FC95F8CC
:103BE0003C00012810D0012085F83C0076B1042E5D
:103BF0001CD0082E3FD00C2E76D00090002085F8E7
:103C00003C000098BDE8F88F0220FBE7D4E90012E1
:103C1000E368286802F070FF2868816921F00C01D0
:103C2000816128688169A268114322E02868B8424E
:103C30000FD040450DD0B0F1804F0AD0484508D094
:103C4000504506D0584504D041F233014AA003F054
:103C5000F7FBD4E90012E368286802F095FF2868B2
:103C6000816921F44061816128688169A26841EA23
:103C700002218161C2E72868B8420FD040450DD0CB
:103C8000B0F1804F0AD0484508D0504506D058457D
:103C900004D041F2430138A003F0D2FB2868D4E9F4
:103CA0000027267B036A016A21F480710162C169E1
:103CB00023F4007321F00301394321F0F0073107A9
:103CC0004FF4007647EA116106EA02221A43C16105
:103CD00002622868C16921F00C01C1612868C169CC
:103CE000A26811433BE0FFE72868B8420FD0404587
:103CF0000DD0B0F1804F0AD0484508D0504506D0CD
:103D0000584504D041F253011BA003F099FB2868E9
:103D1000D4E90026E168036A076A27F4805707623E
:103D2000C76923F4005327F4407747EA06264FF685
:103D3000FF7726F4704607EA013131434FF400560D
:103D400006EA02321A43C16102622868C16921F49D
:103D50004061C1612868C169A26841EA0221C1616C
:103D60004CE70000002C01400034014000040040FA
:103D700000080040000C00402E2E2F53544D3332CB
:103D8000463178785F48414C5F4472697665722F9E
:103D90005372632F73746D3332663178785F686164
:103DA0006C5F74696D2E630010B5040051D03C49FE
:103DB0002068884219D03B49884216D0B0F1804F24
:103DC00013D03949884210D0384988420DD038493B
:103DD00088420AD03749884207D03749884204D000
:103DE00040F2C47135A003F02BFBA06860B110282D
:103DF0000AD0202808D0402806D0602804D040F2FD
:103E0000C5712EA003F01CFB206950B1B0F5807F76
:103E100007D0B0F5007F04D040F2C67127A003F0B0
:103E20000FFBE0684FF6FE71401E884204D940F255
:103E3000C77122A003F004FBA06930B1802804D030
:103E40004FF4F9611DA003F0FBFA94F83D0010B1A6
:103E500007E0012010BD002084F83C00204600F05F
:103E600045F8022084F83D00211D206802F0E2FBA5
:103E7000012084F8460084F83E0084F83F0084F86E
:103E8000400084F8410084F8420084F8430084F83C
:103E9000440084F8450084F83D00002010BD000077
:103EA000002C0140003401400004004000080040A4
:103EB000000C004000100040001400402E2E2F5334
:103EC000544D3332463178785F48414C5F447269D3
:103ED0007665722F5372632F73746D333266317847
:103EE000785F68616C5F74696D2E6300704770B5B0
:103EF0000446006801694FF00005C943890715D4DD
:103F0000C168C943890711D4E91E016101202077E6
:103F1000206880698007204602D0FFF7BFFD04E0DB
:103F200000F0BEF8204600F06CFA257720680169A1
:103F3000C943490717D4C168C943490713D46FF06F
:103F400004010161022020772068806910F4407F1D
:103F5000204602D0FFF7A2FD04E000F0A1F82046C1
:103F600000F04FFA257720680169C943090716D484
:103F7000C168C943090712D46FF008010161042028
:103F800020772068C0698007204602D0FFF786FDB1
:103F900004E000F085F8204600F033FA2577206829
:103FA0000169C943C90617D4C168C943C90613D4F6
:103FB0006FF010010161082020772068C06910F4BB
:103FC000407F204602D0FFF769FD04E000F068F86A
:103FD000204600F016FA257720680169C943C90711
:103FE00008D1C168C943C90704D1891E01612046AF
:103FF00000F0BAFA20680169C943090609D4C1680A
:10400000C943090605D46FF0800101612046FEF71F
:10401000E6FE20680169C943490609D4C168C9435D
:10402000490605D46FF040010161204600F074FBA1
:1040300020680169C94389060BD4C168C943890650
:1040400007D46FF0200101612046BDE87040FEF703
:10405000C7BE70BD00B585B00021009101910291ED
:10406000039100680B49884212D10B48816941F0E5
:10407000100181618069694600F0100004904FF4DE
:10408000707000900220019003900448FDF760FEDC
:1040900005B000BD00340140001002400010014096
:1040A000704700002DE9F04716000D4604464FF01A
:1040B00000090CD0042E0AD0082E08D00C2E06D0F1
:1040C0003C2E04D041F27E016BA003F0B9F92868C0
:1040D000602806D0702804D041F27F0166A003F06A
:1040E000AFF9A86830B1022804D04FF4845162A01F
:1040F00003F0A6F9286930B1042804D041F2810107
:104100005DA003F09DF994F83C00012818D001202F
:104110006549664A664B674FDFF89CC184F83C00EE
:104120004FF0804876B1042E31D0082E56D00C2E98
:104130007AD08146002084F83C004846BDE8F087EC
:104140000220FBE7206888420ED090420CD0404508
:104150000AD0984208D0B84206D0604504D041F257
:104160008B0145A003F06CF92946206802F012FB90
:104170002068816941F0080181612068816921F02E
:1041800004018161206881692A69114324E0206863
:1041900088420ED090420CD040450AD0984208D0B8
:1041A000B84206D0604504D041F29C0132A003F031
:1041B00047F92946206802F05BFB2068816941F4D9
:1041C000006181612068816921F4806181612068DA
:1041D00081692A6941EA02218161ABE7206888424E
:1041E0000ED090420CD040450AD0984208D0B84238
:1041F00006D0604504D041F2AD011FA003F020F9C4
:104200002946206802F0A6FB2068C16941F0080138
:10421000C1612068C16921F00401C1612068C169E0
:104220002A69114325E0FFE7206888420ED09042BA
:104230000CD040450AD0984208D0B84206D060451C
:1042400004D041F2BE010CA003F0FAF82946206820
:1042500002F0F2FB2068C16941F40061C16120688D
:10426000C16921F48061C1612068C1692A6941EA9C
:104270000221C1615EE700002E2E2F53544D3332D0
:10428000463178785F48414C5F4472697665722F99
:104290005372632F73746D3332663178785F68615F
:1042A0006C5F74696D2E6300002C01400034014086
:1042B0000004004000080040000C004010B504005D
:1042C00051D03C492068884219D03B49884216D0D9
:1042D000B0F1804F13D03949884210D03849884214
:1042E0000DD0384988420AD03749884207D037492B
:1042F000884204D040F22C5135A003F0A1F8A06808
:1043000060B110280AD0202808D0402806D06028A4
:1043100004D040F22D512EA003F092F8206950B144
:10432000B0F5807F07D0B0F5007F04D040F22E5169
:1043300027A003F085F8E0684FF6FE71401E884222
:1043400004D940F22F5122A003F07AF8A06930B1CD
:10435000802804D04FF4A6611DA003F071F894F8F2
:104360003D0010B107E0012010BD002084F83C00A2
:10437000204600F045F8022084F83D00211D206809
:1043800002F058F9012084F8460084F83E0084F8D1
:104390003F0084F8400084F8410084F8420084F82B
:1043A000430084F8440084F8450084F83D00002070
:1043B00010BD0000002C014000340140000400400A
:1043C00000080040000C00400010004000140040B5
:1043D0002E2E2F53544D3332463178785F48414C5E
:1043E0005F4472697665722F5372632F73746D33F5
:1043F00032663178785F68616C5F74696D2E630036
:10440000704770472DE9F05F05460068DFF81481BA
:104410000227DFF81491DFF814A1DFF814B1454E3C
:104420000C46404506D1DCB3042C44D0082C49D0BE
:104430000C2C30D0B04206D194B3042C3BD0082CC5
:1044400040D00C2C27D0B0F1804F13D0484506D176
:1044500034B3042C2FD0082C34D00C2C1BD0504556
:1044600006D1ECB1042C26D0082C2BD00C2C12D069
:10447000584506D1A4B1042C1DD0082C22D00C2CF8
:1044800009D040F2B3512CA002F0DAFF44B1042C61
:1044900011D0082C16D095F84100012819D000E061
:1044A00002E00120BDE8F09F95F83E000128F6D11A
:1044B00085F83E700FE095F83F000128EFD185F8B0
:1044C0003F7008E095F840000128E8D185F8407079
:1044D00001E085F8417001222146286802F0F0F8D9
:1044E0002868404501D0B04203D1426C42F40042FA
:1044F0004264286840450AD0B04208D0B0F1804FED
:1045000005D0484503D0504501D0584504D18168B5
:1045100001F00701062903D0016841F001010160A3
:104520000020BFE7002C01400004004000080040CC
:10453000000C0040003401402E2E2F53544D3332D6
:10454000463178785F48414C5F4472697665722FD6
:104550005372632F73746D3332663178785F68619C
:104560006C5F74696D2E630070B5006820498842E5
:104570003DD1204CA089401CA0816078401C607017
:10458000E08808B1401EE0801B4D287828B1012842
:1045900003D0022801D003280BD1FCF7C9FD2878ED
:1045A00008B1032801D10121E170012801D1FCF7F4
:1045B0008BF96078022816D900256570FCF7AEFDEE
:1045C000216905F011FF20612178491CC9B22170D1
:1045D000322908D1094905F07BFF094908602561A6
:1045E000257005F021F8BDE8704003F02FB970BDCB
:1045F00000100040D80000201101002000004842B7
:10460000040100202DE9F0410446324A324B334D7B
:10461000334E344F00204FF0804CD9B104292ED0B6
:10462000082941D00C2913D1206890420ED098421D
:104630000CD060450AD0A84208D0B04206D0B8429B
:1046400004D041F2E95128A002F0FAFE2068006C83
:10465000BDE8F081206890420ED098420CD06045B1
:104660000AD0A84208D0B04206D0B84204D041F2E5
:10467000C9511DA002F0E4FE2068406BE8E7206805
:1046800090420ED098420CD060450AD0A84208D083
:10469000B04206D0B84204D041F2D35112A002F089
:1046A000CFFE2068806BD3E7206890420ED09842FE
:1046B0000CD060450AD0A84208D0B04206D0B8421B
:1046C00004D041F2DE5108A002F0BAFE2068C06BAF
:1046D000BEE70000002C014000340140000400400F
:1046E00000080040000C00402E2E2F53544D333252
:1046F000463178785F48414C5F4472697665722F25
:104700005372632F73746D3332663178785F6861EA
:104710006C5F74696D2E63007047000070B5040013
:1047200020D0A06934490028344A354B20681BD07A
:1047300088420AD0904208D0984206D04FF4B77110
:1047400030A002F07DFEA069F8B1A069B0F5807FCD
:104750001BD0B0F5007F18D0B0F5407F15D040F2E7
:104760006F110FE0012070BD88420ED090420CD036
:1047700098420AD03049884207D03049884204D054
:1047800040F273111FA002F05BFEA06838B1B0F5D3
:10479000805F04D040F275111AA002F051FE94F827
:1047A0004100002520B984F84050204600F048F828
:1047B000242084F841002068C16821F40051C160C0
:1047C000204602F06DFA2068016921F490410161F0
:1047D0002068416921F02A0141612068C16841F4E3
:1047E0000051C1606564202084F8410084F84200D3
:1047F0006563002070BD00000038014000440040A7
:10480000004800402E2E2F53544D333246317878D5
:104810005F48414C5F4472697665722F5372632F13
:1048200073746D3332663178785F68616C5F75617F
:1048300072742E6300000000004C004000500040E5
:1048400030B585B00024009401940294039400686C
:104850001449884224D11448816941F4804181611E
:10486000816901F480410491816941F00401816111
:1048700080690E4D00F0040004904FF40070009029
:10488000022001900320039069462846FDF760FA54
:104890002815CDE90004694628460294FDF758FA28
:1048A00005B030BD00380140001002400008014052
:1048B000FEE770B50D46044600F0C0F8204600F053
:1048C0008DF800F003F9284600F088F800F0FEF8B3
:1048D00000F0B4F8641CE0B200F080F800F0F6F8E4
:1048E000002000F045F8044600F0D0F8204670BDE6
:1048F00070B50D4C0025C4F8AC510C48016821F48A
:1049000070610160016841F440710160C4F8A85110
:10491000012004F5D47403F021F80120606003F055
:104920001DF8656070BD000000802142040C01404C
:1049300070B50D4C0025C4F8AC510C48016821F449
:1049400070610160016841F4407101600126C4F8A2
:10495000A861304604F5D47403F000F866600120C5
:1049600002F0FCFF656070BD00802142040C014034
:104970002DE9F047814617480024016821F4706151
:104980000160016841F400610160134E254627462D
:104990004FF00108C6F8AC71022002F0DFFFC6F844
:1049A000AC816006040ED6F8280108B1641CE4B29C
:1049B000022002F0D3FF6D1CEDB2082DEAD3B9F14D
:1049C000000F02D0FFF794FF01E0FFF7B1FF204690
:1049D000BDE8F087040C0140008021422DE9F04140
:1049E00006461448016821F470610160016841F4D1
:1049F00040710160104C0027C4F8AC713D464FF087
:104A00000108F009C4F8A8017006060E012002F0A2
:104A1000A5FFC4F8AC81012002F0A0FFC4F8AC717E
:104A2000012002F09BFF6D1CEDB2082DE9D3BDE81B
:104A3000F0810000040C01400080214270B5114853
:104A4000016821F470610160016841F44071016006
:104A50000D4C0120C4F8A801D4F8281149B1C4F8BC
:104A6000AC0102F07BFF0025C4F8A851D4F828015E
:104A700008B1002070BD012002F070FFC4F8AC51F5
:104A8000012070BD040C0140008021420D4810B58A
:104A9000016821F470610160016841F440710160B6
:104AA000094C0020C4F8AC01C4F8A801012004F5A9
:104AB000D47402F053FF012060602060BDE8104014
:104AC00002F04CBF040C01400080214270B5134835
:104AD0000024016821F470610160016841F4006103
:104AE00001600F4D0126C5F8A861304602F036FF7F
:104AF000C5F8AC6107E0641CE4B2322C03D9FFF7BF
:104B0000C5FF002070BD012002F028FFD5F8280164
:104B10000028F0D1C5F8AC01012070BD040C0140A3
:104B20000080214210B51446FFF7C3FE207001201B
:104B300010BDF8B515461C460E4607466A46FFF7F7
:104B4000F1FF01209DF80010A8400CB1084301E0DE
:104B500021EA0000C2B28DF800203146384600F04C
:104B60002BF8F8BD2DE9F84314461D460F46804644
:104B70006A46089EFFF7D6FF00281BD0611CFF2065
:104B8000C4F1080200FA01F12A44521ED040014348
:104B9000C5F108008640F2B2C4F10700C2409DF89A
:104BA0000000084010438DF80000C2B2394640466C
:104BB00000F002F8BDE8F88307B502AB012200F06F
:104BC00001F80EBD2DE9F0411E4615468846074600
:104BD0000024FFF733FF3846FFF700FFFFF776FFAB
:104BE0004046FFF7FBFEFFF771FF06E0305DFFF781
:104BF000F5FEFFF76BFF641CE4B2AC42F6D3FFF79F
:104C000045FF0120BDE8F0812DE9F04F04469148B1
:104C1000ABB011AFB0E86810299287E868106CC893
:104C20000DAF87E86C0050E91423CDE9272350E944
:104C30001223CDE9252350F8588900F15C031FAFFA
:104C400093E80C109346199350F8682B2A926CC87D
:104C500087E86C0050E91820CDE923200020079058
:104C600008900490059006901B901C9009900A9063
:104C70000B9003900C901D901E901A90E2460846EF
:104C800005F086FB05460E4684F0004005F080FBEB
:104C90002A46334602F0E6FC04F0D8FD6E4F15902C
:104CA0000DAC0222CDE9004707AE01231146029662
:104CB000104604F063FC1BAA29A927A88DE8070069
:104CC00001231A461946022004F058FC1B99079844
:104CD00005F08AFB07F1080528601C99089805F083
:104CE00083FB68600DF10C0905F128010094022393
:104CF000CDE901191A461946184604F03FFC09A9E6
:104D00001FAACDF80090CDE9012102231A461946C9
:104D1000184604F033FC4146099805F065FB4F4CFA
:104D2000594620600A9805F05FFB606019990B985E
:104D300005F05AFBA06051460C9805F055FBE06069
:104D40000DF1940A0223CDE900A40DF1740B1A466B
:104D5000CDF808B01946012004F010FC0DF16808E8
:104D600023A9CDF800B0CDE9011801230222114694
:104D7000184604F003FC2A991A9805F035FB014601
:104D80004FF07E5005F0A4FB1A9023A8CDE9004017
:104D90000222012311460296104604F0EFFB05F1B2
:104DA000080B01238DE840091A461946022004F039
:104DB000E5FBCDF800A0CDE9015801230222114600
:104DC000184604F0DBFB1A99159805F0DDFD1A90E2
:104DD000CDF800B00123CDE901861A46194602201C
:104DE00004F0CCFB0799286805F0FEFA38600899B2
:104DF000686805F0F9FA7860CDF800B0CDE901A94E
:104E0000022301221146184604F0B8FB03991198B9
:104E100005F0BAFD03900499129805F0B5FD0490D1
:104E20000599139805F0B0FD05900699149805F0C2
:104E3000ABFD069005F12800CDF800900223CDE9E6
:104E400001401A461946184604F098FB38682BB002
:104E5000BDE8F08FD8BF0008C40100204C08002036
:104E60002DE9F04F04469348ABB000F178030F46AC
:104E700093E8681011A9299281E8681000F188056B
:104E80000DF134084ECD88E84E00D0E90812CDE986
:104E90002712D0E90A12CDE92512B5E80E1088468E
:104EA000CDF858C0416892469B462A912ECD1FAE40
:104EB00086E82E00D0E90C10CDE9231000200790E1
:104EC00008900490059006901B901C9009900A9001
:104ED0000B9003900C901D901E901A90384605F090
:104EE00057FA06460D4684F0004005F051FA324666
:104EF0002B4602F0B7FB04F0A9FC6F4F15900DACE8
:104F00000222CDE9004707AE012311460296104662
:104F100004F034FB1BAA29A927A88DE80700012368
:104F20001A461946022004F029FB1B99079805F040
:104F30005BFA07F1080528601C99089805F054FAF7
:104F400068600DF10C0905F1200000940223CDE901
:104F500001091A461946184604F010FB09A91FAAB0
:104F6000CDF80090CDE9012102231A4619461846D2
:104F700004F004FB4146099805F036FA4F4C5146BF
:104F800020600A9805F030FA606059460B9805F0E9
:104F90002BFAA06016990C9805F026FAE0600DF146
:104FA000940A0223CDE900A40DF1740B1A46CDF842
:104FB00008B01946012004F0E1FA0DF1680823A9B0
:104FC000CDF800B0CDE901180123022211461846A0
:104FD00004F0D4FA2A991A9805F006FA01464FF01F
:104FE0007E5005F075FA1A9023A8CDE90040022200
:104FF000012311460296104604F0C0FA05F1080B91
:1050000001238DE840091A461946022004F0B6FA39
:10501000CDF800A0CDE9015801230222114618461F
:1050200004F0ACFA1A99159805F0AEFC1A90CDF878
:1050300000B00123CDE901861A461946022004F08A
:105040009DFA0799286805F0CFF9386008996868D3
:1050500005F0CAF97860CDF800B0CDE901A90223C6
:1050600001221146184604F089FA0399119805F0B7
:105070008BFC03900499129805F086FC0490059926
:10508000139805F081FC05900699149805F07CFCB6
:10509000069005F12001CDF800900223CDE90141F1
:1050A0001A461946184604F069FA38682BB0BDE86C
:1050B000F08F0000A0BF0008DC0100205C08002089
:1050C00010B504464FF480710C48FCF7E3FF0C491F
:1050D00018B10020488008800AE063004888012257
:1050E0009B1C834201D9401C488080B2022801D019
:1050F000002010BD0A80012010BD00000008014002
:105100008A000020044908B5CA690243CA61C96916
:105110000140009108BD000000100240044908B59C
:105120008A6902438A6189690140009108BD0000D3
:10513000001002402DE9F047044667480D468442BE
:1051400015D06648844212D0654884420FD0654825
:1051500084420CD06448844209D06448844206D01A
:105160006348844203D0A22162A002F069F9286852
:1051700030F07B4102D010F07B4F03D0A3215DA023
:1051800002F05EF92868C0F30F2797FAA7F0B0FA8B
:1051900080F69AE00120B04038427CD0082E03D23D
:1051A00040F20110B04006E0A6F108014FF00110F6
:1051B000884040F0806081466868082814D12869DA
:1051C00028B1012803D0BE214AA002F039F929698B
:1051D000E2684FEA192090FAA0F0B0FA80F022EAD3
:1051E000192281400A43E260686858B1042809D056
:1051F000082807D0012805D0092803D0C5213DA0E3
:1052000002F01EF9484699FAA9FC04EB1061BCFAB9
:105210008CFC4FEA8C084FF00F0C0CFA08FC99FA42
:10522000A9F06A680B68B0FA80F0800023EA0C03EA
:10523000824013430B6068688A46012801D0092820
:1052400042D1A868022807D0012805D0032803D03E
:10525000CD2128A002F0F4F8E86828B1042803D092
:10526000CE2124A002F0ECF899FAA9FCBCFA8CFC3F
:105270004FEA8C084FF0030C0CFA08FC99FAA9F2DB
:10528000AB68DAF80000B2FA82F2920020EA0C0071
:105290009340184300E017E099FAA9FCBCFA8CFC93
:1052A0004FEA8C084FF0040CCAF800000CFA08FC16
:1052B00099FAA9F1B1FA81F1EB68890020EA0C00B2
:1052C0008B401843CAF80000761C37FA06F07FF4CA
:1052D00061AFBDE8F087000000080140000C01400C
:1052E000001001400014014000180140001C014062
:1052F000002001402E2E2F53544D33324631787802
:105300005F48414C5F4472697665722F5372632F18
:1053100073746D3332663178785F6C6C5F67706977
:105320006F2E630000B5034600F0BCFE186000F06D
:105330008FFE586000F09AFE9860586800F0A4FE56
:10534000D86000BD2DE9FF5F674F0126DFF89C8123
:10535000DFF89C91DFF89CA1DFF89CB10D46044674
:10536000B8420BD0444509D04C4507D0544505D030
:105370005C4503D0CD2161A002F062F86C49286839
:10538000884203D9CE215DA002F05AF8686830B196
:10539000B0F5805F03D0CF2158A002F051F8A86883
:1053A000B0F5805F0AD048B1B0F5405F06D0B0F5E7
:1053B000005F03D0D02151A002F042F8E86848B164
:1053C000B0F5806F06D0B0F5C06F03D0D1214BA0EF
:1053D00002F036F8286948B1042807D0082805D01B
:1053E0000C2803D0D22145A002F02AF8686960B1E8
:1053F000B0F5807F09D0B0F5007F06D0B0F5407FD2
:1054000003D0D3213DA002F01BF8E068C0F3403088
:10541000002864D1E9686868E2680843296941F2B4
:105420000C639A4311430843E060A868216921F4A2
:105430004051014321616869616921F44071014370
:1054400061616846FFF76EFFBC4201D1039808E036
:10545000444505D04C4503D0544501D05C453ED170
:105460000298E0B32968D1B300EBC00202EB00124E
:105470008800B2FBF0F36421B3FBF1F36FF018077F
:105480007B43B2FBF0F5B2FBF0F705EB830532236B
:1054900003EB0515B5FBF1F5B7FBF1F705F0F005EA
:1054A00005EB0715B2FBF0F7B2FBF0F0B0FBF1F043
:1054B00000266FF01802504307EB800003EB00104A
:1054C000B0FBF1F000F00F00284480B2A060A068AB
:1054D000102804D240F2351108A001F0B1FF04B049
:1054E0003046BDE8F09F0000003801400044004015
:1054F00000480040004C0040005000402E2E2F532A
:10550000544D3332463178785F48414C5F4472697C
:105510007665722F5372632F73746D3332663178F0
:10552000785F6C6C5F75736172742E6300000000AD
:1055300020AA44002820FCF79BBE10B5022000F0F2
:1055400011F8032000F020F8002000F014F80020EB
:1055500000F02FF8002000F026F8BDE810400020F1
:1055600000F01BB808B50323009002226B21D02065
:10557000FFF7F8FA08BD08B50223009004221C21A9
:10558000D020FFF7EFFA08BD08B5022300900422EF
:105590001B21D020FFF7E6FA08BD03460122372180
:1055A000D020FFF7C6BA034605226A21D020FFF7B4
:1055B000C0BA034606226B21D020FFF7BABA00001A
:1055C0003EB500211148009101910F4A02910260FD
:1055D00081600173017501244FF460220461C2618E
:1055E0004160FCF779F808B1FBF7F4FB0520CDE941
:1055F00000040720029069460448FBF72BFF0028AF
:1056000001D0FBF7E7FB3EBD002401408C020020E7
:105610002DE9F04186B000243748009401940294AB
:105620000394816941F020018161816901F02001C9
:105630000491816941F004018161816901F00401F3
:105640000491816941F008018161816901F00801DB
:105650000491816941F0100181618069274F00F058
:10566000100040F601050490002229463846FCF758
:1056700039FDDFF88C80002240F608414046FCF7F7
:1056800031FD0095022601250396CDE901546946B6
:105690003846FCF75DFB4FF44060CDE90005032080
:1056A000CDE9024069464046FCF752FB2802CDE9AD
:1056B0000004694638460294FCF74AFB2803009030
:1056C0001048CDE9010569463846FCF741FB082042
:1056D000CDE90005CDE9024669464046FCF738FBB6
:1056E000012202212820FCF7F1FD2820FCF7C0FD53
:1056F00006B0BDE8F0810000001002400008014043
:10570000000C01400000111010B58AB0002422489E
:1057100004940594069407940894099400940194C1
:1057200002944FF08041039401604721C0E90114C5
:105730004FF6FF71C0E903148461FDF78DFC08B1D9
:10574000FBF748FB4FF48050049004A91248FDF782
:10575000EBFD08B1FBF73EFB0F48FEF725FB08B158
:10576000FBF738FB089408A90B480994FDF7DAFB0E
:1057700008B1FBF72FFB0120CDE900400294042281
:10578000694605480394FEF7DBF9002801D0FBF7D2
:1057900021FB0AB010BD0000BC02002010B58CB087
:1057A00024216846FAF7B5FE0024164809941449E6
:1057B0000A94C0E900144FF6FF71C0E90241046188
:1057C00084610320CDE900040120CDE902040494A2
:1057D000CDE90540079469460A480894FDF770FF33
:1057E00008B1FBF7F7FA099409A906480A94FDF7EE
:1057F00099FB002801D0FBF7EDFA0CB010BD0000BA
:10580000000400400403002010B58CB02421684639
:10581000FAF77FFE00241648099414490A94C0E957
:1058200000144FF6FF71C0E9024104618461032056
:10583000CDE900040120CDE902040494CDE905403E
:10584000079469460A480894FDF73AFF08B1FBF748
:10585000C1FA099409A906480A94FDF763FB0028D8
:1058600001D0FBF7B7FA0CB010BD000000080040F3
:105870004C0300201CB500240E4800940C490194F0
:10588000016041F61F41C0E9011463218461C160D8
:10589000FDF7E2FB08B1FBF79DFA00946946054865
:1058A0000194FDF73FFB002801D0FBF793FA1CBDE4
:1058B000001000409403002010B596B000240F940F
:1058C00010941194129413941C2168461494FAF7BE
:1058D00020FE202107A8FAF71CFE34483249C0E90F
:1058E000001440F63F31C0E9024180210461C0E963
:1058F0000541FDF7B1FB08B1FBF76CFA4FF480509E
:105900000F900FA92948FDF70FFD08B1FBF762FAC8
:105910002648FEF7D3FC08B1FBF75CFA139413A9F1
:1059200022481494FDF7FEFA08B1FBF753FA602001
:10593000CDE900040294039404940594002269467E
:105940001A480694FEF7AEFB08B1FBF743FA0422AF
:1059500069461648FEF7A6FB08B1FBF73BFA08229A
:1059600069461248FEF79EFB08B1FBF733FA0C229A
:1059700069460E48FEF796FB08B1FBF72BFA079431
:10598000089409944FF400500A94CDE90B4007A9FC
:1059900006480E94FDF726FA08B1FBF71BFA0348F8
:1059A000FEF758FB16B010BD00340140DC030020A8
:1059B0000C4810B50A4901604FF4E1314160002103
:1059C00081600C22C160C0E904128161C161FEF7EF
:1059D000A5FE002803D0BDE81040FBF7FBB910BDC1
:1059E000003801402404002030B58DB01C216846E9
:1059F000FAF78FFD142107A8FAF78BFD4FF400305A
:105A0000FFF780FB0420FFF789FB40F2044007907A
:105A10000920089003200024CDE909041C4D07A9A2
:105A20002846FFF787FB40F60800079004200890FF
:105A300007A92846FFF77EFB164800680122C0F33D
:105A40000220114600F077F80146262001F0D5FA31
:105A5000262001F0C5FA4FF4E130CDE900040C2016
:105A60000294CDE90340059406940B4C6946204608
:105A7000FFF768FC206920F490402061606920F005
:105A80002A006061E06840F40050E0600DB030BD75
:105A9000000801400CED00E000440040FEE700007B
:105AA000012310B51A4619460CA000F05DF8012339
:105AB000002202210DA000F057F80120FFF700FBA3
:105AC0000028FAD00E494FF0FF3008600D491E2023
:105AD0000870BDE8104000F0FFBC0000436861732F
