:020000040800F2
:10000000F032002015020008456E0008055900086E
:10001000C16D0008F50900085D86000800000000B9
:10002000000000000000000000000000517A0008FD
:10003000050F000800000000AD720008797B000881
:100040002F0200082F0200082F0200082F020008CC
:100050002F0200082F0200082F0200082F020008BC
:100060002F0200082F0200082F0200082F020008AC
:100070002F0200082F0200082F0200082F0200089C
:100080002F0200082F0200082F0200082F0200088C
:100090002F0200082F0200082F0200082F0200087C
:1000A0002F0200082F0200082F0200082F0200086C
:1000B000057C00082F0200082F0200082F0200080C
:1000C0002F0200082F0200082F0200082F0200084C
:1000D0002F0200082F0200088985000831860008D9
:1000E000210F00082F0200082F0200082F0200082D
:1000F0002F0200082F0200082F0200082F0200081C
:100100002F0200082F0200082F0200082F0200080B
:100110002F020008BD830008157C00082F0200088C
:100120002F0200082F0200082F0200082F020008EB
:1001300000F002F800F05FF80AA090E8000C82449A
:100140008344AAF10107DA4501D100F054F8AFF277
:10015000090EBAE80F0013F0010F18BFFB1A43F0A5
:10016000010318476C0401008C0401000A444FF09D
:10017000000C10F8013B13F0070408BF10F8014B06
:100180001D1108BF10F8015B641E05D010F8016B4B
:10019000641E01F8016BF9D113F0080F1EBF10F8AF
:1001A000014BAD1C0C1B09D16D1E58BF01F801CBD2
:1001B000FAD505E014F8016B01F8016B6D1EF9D555
:1001C0009142D6D37047000000230024002500266A
:1001D000103A28BF78C1FBD8520728BF30C148BFAA
:1001E0000B607047642900F07B80002070471FB5CA
:1001F0001FBD10B510BD00F0CFFA1146FFF7F7FF95
:100200000AF078FA00F0EDFA03B4FFF7F2FF03BC4E
:1002100008F0E5FB0948804709480047FEE7FEE78C
:10022000FEE7FEE7FEE7FEE7FEE7FEE7FEE7FEE7A6
:1002300004480549054A064B70470000037C000846
:1002400031010008F02C0020F0320020F02E0020B8
:10025000F02E0020704710B54C1084EA530404D5EA
:100260004042C1F1000138BF491E1B4204D5524231
:10027000C3F1000338BF5B1E00F076F914F0804F25
:1002800004D04042C1F1000138BF491E14F0004FB4
:1002900004D05242C3F1000338BF5B1E10BD000002
:1002A0000FB4044910B503AA029800F057FA10BC25
:1002B0005DF814FB180100200FB41CB5074B06AA0B
:1002C0007B4469460090059800F02FFA00206946AB
:1002D00000F03EFA1CBC5DF814FB00008D04000029
:1002E0002DE9F0410646002410687529314616A50F
:1002F00010D0AFF30080002802DA404213A507E0D7
:1003000031688A0701D512A502E0490704D511A575
:10031000012401E0AFF3008000210A2206F1240746
:1003200009E0B0FBF2FCB0FBF2F302FB1C00303042
:1003300078541846491C0028F3D123462A463046F3
:10034000BDE8F04100F092B9000000002D0000006F
:100350002B000000200000002DE9F0474FF0000ABC
:1003600089460446C0F820A02046E1688847002856
:1003700076D0252806D0D4E901219047206A401C78
:100380002062F1E7E168204600258847C4F81CA0F8
:1003900006460027C4F818A02A2E09D0304608F0D7
:1003A00017FB38B304EB8708303EC8F8186019E033
:1003B00059F8041B204604EB87029161E1688847E5
:1003C000012F064618D1E069002820DA25F0200523
:1003D0001DE0D8F8180000EB800006EB4000303834
:1003E000C8F818002046E1688847064608F0F0FA89
:1003F0000028EED1012F0AD02E2E08D12046E16828
:1004000088477F1C0646022F45F02005C4DBA06903
:10041000002803DA404245F00105A061E80701D059
:1004200025F01005B6B1A6F14100192802D82036F2
:1004300045F400654A463146204625604D46FFF7A3
:10044000D1FE58B1012806D0ED1D25F0070000F1BE
:10045000080989E704E005F1040985E730468AE7E1
:10046000206ABDE8F08740EA010310B59B070FD171
:10047000042A0DD310C808C9121F9C42F8D020BA14
:1004800019BA884201D9012010BD4FF0FF3010BDCC
:100490001AB1D30703D0521C07E0002010BD10F89A
:1004A000013B11F8014B1B1B07D110F8013B11F860
:1004B000014B1B1B01D1921EF1D1184610BD02F059
:1004C000FF0343EA032242EA024200F002B84FF07F
:1004D00000020429C0F0128010F0030C00F01B8011
:1004E000CCF1040CBCF1020F18BF00F8012BA8BF1F
:1004F00020F8022BA1EB0C0100F00DB85FEAC17CE3
:1005000024BF00F8012B00F8012B48BF00F8012B95
:1005100070474FF0000200B51346944696462039C6
:1005200022BFA0E80C50A0E80C50B1F12001BFF4AC
:10053000F7AF090728BFA0E80C5048BF0CC05DF812
:1005400004EB890028BF40F8042B08BF704748BF60
:1005500020F8022B11F0804F18BF00F8012B7047D4
:10056000704770477047704753EA020C00F069808B
:100570002DE9F04B4FF00006002B1FBFB3FA83F5B7
:1005800003FA05F424FA05F65E4012BF1643B2FAE8
:1005900082F502FA05F4C5F120051EBF22FA05FC1A
:1005A00044EA0C04203556EA044C4FEA144418BFC0
:1005B000641C4FF000084FF00009904271EB030CEF
:1005C00039D3002919BFB1FA81F701FA07F6B0FA59
:1005D00080F700FA07F6C7F120071EBF20FA07FCD4
:1005E00046EA0C062037B6FBF4FCA7EB0507103FE4
:1005F00007F01F0BCBF120060CFA0BFB2CFA06F6CA
:1006000044BFB3460026202FA4BF5E464FF0000B28
:100610005BEA060C08BF4FF0010B19EB0B09ABFBB3
:10062000027C48EB0608C01B06FB02CC0BFB03CC8C
:1006300071EB0C01C1E70B46024641464846BDE856
:10064000F08B13B54FF000004FF00001AFF30080C6
:10065000BDE81C40704710B500F092F8006810BD6E
:1006600010B5044600F08CF8046010BD2DE9F04789
:100670000D4699469246044600F124080168880612
:1006800004D5E06921F01001216000E00120A842BA
:1006900001DD471B00E00027A1697A1902EB090080
:1006A000081AA0612078C00602D42046AFF300806B
:1006B000002608E0D4E901211AF806009047206AD4
:1006C000401C761C20624E45F4DB2078C0060AD51B
:1006D0002046AFF3008006E0D4E9012130209047A6
:1006E000206A401C2062381EA7F10107F4DC07E0F5
:1006F000D4E9012118F805009047206A401C2062C7
:10070000281EA5F10105F3DC2046AFF30080207818
:10071000000602D50220BDE8F0870120FBE70000BB
:1007200001694A1C02610878704700B58FB0CDE9B5
:1007300001310021059105497944CDE903101146A5
:100740006846FFF709FE0FB000BD0000E5FFFFFFA0
:100750000A6802F8010B0A6070470000074B70B589
:100760000D467B44FFF7E1FF0446284600F00CF8F5
:1007700010B14FF0FF3070BD204670BDDB97000018
:10078000004870478C2C0020007B00F080007047F0
:10079000004870478C2C00207546FFF7F9FFAE46E5
:1007A00005006946534620F00700854618B020B57D
:1007B000FFF73EFDBDE820404FF000064FF0000778
:1007C0004FF000084FF0000B21F00701AC46ACE8F9
:1007D000C009ACE8C009ACE8C009ACE8C0098D4666
:1007E000704710B50446AFF300802046BDE81040C6
:1007F000FFF70ABD70B5044600252068806800F048
:10080000010018B32068806820F00100216888602A
:1008100001F0B0FF054613E001F0ACFF401B0228D9
:100820000ED92068806800F0010048B1A06A40F04D
:100830001000A062E06A40F00100E062012070BD9B
:100840002068806800F001000028E5D10020F6E76C
:1008500038B504460025002000902068806800F02C
:10086000010078BB2068806840F001002168886042
:10087000194800681949B0FBF1F0009002E00098B7
:10088000401E009000980028F9D101F073FF054642
:1008900019E001F06FFF401B022814D9206880681E
:1008A00000F0010078B9A06A40F01000A062E06A90
:1008B00040F00100E06200BF002084F8240000BF87
:1008C000012038BD05E02068806800F001000028A4
:1008D000DFD00020F5E700003C00002040420F0080
:1008E0001648007840B1154800780B2804D013480A
:1008F00000780C2800D070471148006800B9FAE76A
:100900000F480068142807D90D480068642803D2EE
:100910000B200A4908700FE009480068F02808D940
:1009200007480068B0F5967F03D20C200349087091
:1009300002E000200149087000BFDCE754000020FD
:100940000C0100202DE9FC5F04460D461F4800689D
:100950000CF09AF8804621460CF0F4F90646294638
:1009600000200CF0EFF901901948016801980CF093
:10097000EBF8824617490BF055FF81461648006890
:1009800080F0004B134958460BF04CFF824631462D
:100990000CF0DAF8494600900CF0D4F980460CF0DF
:1009A00037F807460D48007803280CD138460CF07C
:1009B0006BF881460A48016848460CF0C5F8804645
:1009C0000CF026F807463846BDE8FC9F20000020C2
:1009D0004C0200200000C8424802002039010020DB
:1009E0003C02002010B5024800F0F0FD10BD0000F0
:1009F000B802002000BFFEE72DE9F05F05460C4677
:100A0000124E1348016820460CF09EF883461148A8
:100A1000016858460BF098FE804631464FF07E50F4
:100A20000CF090F9824641460CF08EF807463146AC
:100A300028460CF089F8814639460BF085FE0549B9
:100A4000086008460068BDE8F09F00000AD7A33C94
:100A500068010020A80100202DE9F05F05460C4642
:100A6000124E1348016820460CF06EF88346114878
:100A7000016858460BF068FE804631464FF07E50C4
:100A80000CF060F9824641460CF05EF807463146AC
:100A900028460CF059F8814639460BF055FE0549B9
:100AA000086008460068BDE8F09F00000AD7A33C34
:100AB00068010020E801002038B5002000906B4656
:100AC00001227521682009F061FD33A0FFF7E8FBE2
:100AD0009DF8000068281DD000BF00BF00BF00BF08
:100AE00000BFBFF34F8F00BF00BF00BF3348006897
:100AF00000F4E06032490843001D3049086000BF3F
:100B000000BF00BFBFF34F8F00BF00BF00BF00BFDB
:100B100000BFFDE709F050FF00283CD178200AF023
:100B200055FD10B91CA0FFF7BBFB782009F032FE81
:100B300010B924A0FFF7B4FBC8200AF0F9FC10B9E3
:100B40002AA0FFF7ADFB08F097FD10B931A0FFF721
:100B5000A7FB3D4809F092FD044608F0E7FF10B9F5
:100B60003AA0FFF79DFB40F2731008F02DFC10B97E
:100B700040A0FFF795FBC82008F008FF10B947A078
:100B8000FFF78EFB0AF008FF01200AF0CDFB10B939
:100B90004BA0FFF785FB38BD6D70755F7365745FA3
:100BA00073656E736F7220636F6D706C6574652012
:100BB0002E2E2E2E2E2E0D0A000000000CED00E031
:100BC0000000FA056D70755F636F6E666967757218
:100BD000655F6669666F20636F6D706C6574652014
:100BE0002E2E2E2E2E2E0D0A000000006D70755F29
:100BF0007365745F73616D706C655F72617465209D
:100C0000636F6D706C657465202E2E2E2E2E2E0D4A
:100C10000A000000646D705F6C6F61645F6D6F74DB
:100C2000696F6E5F6472697665725F6669726D770F
:100C300061726520636F6D706C657465202E2E2E59
:100C40002E2E2E0D0A000000C8000020646D705F7B
:100C50007365745F6F7269656E746174696F6E201D
:100C6000636F6D706C657465202E2E2E2E2E2E0DEA
:100C70000A000000646D705F656E61626C655F669E
:100C800065617475726520636F6D706C6574652045
:100C90002E2E2E2E2E2E0D0A00000000646D705F89
:100CA0007365745F6669666F5F7261746520636FF8
:100CB0006D706C657465202E2E2E2E2E2E0D0A0062
:100CC0006D70755F7365745F646D705F737461746C
:100CD0006520636F6D706C657465202E2E2E2E2E30
:100CE0002E0D0A0010B50446242C0AD11C480078A9
:100CF00038B901201A49087014211A48FFF7E7FB98
:100D000010BD17480078012828D1232C0BD10020D2
:100D1000134908701449087000F05EFB1421114853
:100D2000FFF7D5FB1AE00E480078012816D1242CD5
:100D300014D00D4801780078401C0B4A1070094807
:100D4000445410460078142808DD0020114608702D
:100D50000349087014210348FFF7B9FB00BFCFE730
:100D60008C020020AC0800208D02002010B5044643
:100D7000242C0AD11B48007838B901201949087081
:100D800014211948FFF7A3FB10BD1648007801286D
:100D900026D1232C07D1002012490870134908706E
:100DA0000120134908700F480078012818D1242C1D
:100DB00016D00E4801780078401C0C4A10700A4882
:100DC00044541046007814280ADD002011460870AB
:100DD000044908700649087014210348FFF777FB9F
:100DE00000BFD1E788020020980800208902002077
:100DF0008A02002010B50446242C0AD11B48007832
:100E000038B901201949087014211948FFF75FFB10
:100E100010BD16480078012826D1232C07D10020C8
:100E200012490870134908700120134908700F48CF
:100E30000078012818D1242C16D00E4801780078AB
:100E4000401C0C4A10700A4844541046007814287C
:100E50000ADD002011460870044908700649087030
:100E600014210348FFF733FB00BFD1E788020020BD
:100E700098080020890200208A02002010B504464C
:100E8000242C0AD11B48007838B901201949087070
:100E900014211948FFF71BFB10BD164800780128E4
:100EA00026D1232C07D1002012490870134908705D
:100EB0000120134908700F480078012818D1242C0C
:100EC00016D00E4801780078401C0C4A10700A4871
:100ED00044541046007814280ADD0020114608709A
:100EE000044908700649087014210348FFF7EFFA17
:100EF00000BFD1E788020020980800208902002066
:100F00008A0200207047002107E0002101E04A1C0E
:100F1000D1B20A29FBDB421ED0B20028F5D17047BE
:100F200010B54FF4805001F0A1F910BD10B50020AC
:100F3000034908600421034803F0B0FB10BD000022
:100F4000240400403003002010B50020034908604D
:100F50000421034803F0A2FB10BD00002408004058
:100F60007803002072B600BFFEE700002DE9F04FC5
:100F700091B0804606F038FCE2490860B8F1010FF4
:100F80001BD106F0E7FAE0480068E0490860E04954
:100F9000B1F900000BF078FDDE490860DC49B1F9D9
:100FA00004000BF071FDDC490860DC49B1F9040074
:100FB0000BF06AFDDA490860A1E14421D02004F079
:100FC000A3FC83464321D02004F09EFC0BEB0020C1
:100FD00009900BF059FD06464621D02004F094FC00
:100FE00083464521D02004F08FFC0BEB00200990B4
:100FF0000BF04AFD0A904821D02004F085FC83467E
:101000004721D02004F080FC0BEB002009900BF06E
:101010003BFD07463C21D02004F076FC83463B2173
:10102000D02004F071FC0BEB002009900BF02CFD9C
:101030000D903E21D02004F067FC83463D21D02056
:1010400004F062FC0BEB002009900BF01DFD8246C2
:101050004021D02004F058FC83463F21D02004F0EA
:1010600053FC0BEB002009900BF00EFD05464FF0F2
:101070008E4130460BF034FE05D24FF08F413046A2
:101080000BF060FE06464FF08E410A980BF028FEEA
:1010900005D24FF08F410A980BF054FE0A904FF0A2
:1010A0008E4138460BF01CFE05D24FF08F4138467A
:1010B0000BF048FE07464FF08E410D980BF010FEE6
:1010C00005D24FF08F410D980BF03CFE0D904FF084
:1010D0008E4150460BF004FE05D24FF08F41504632
:1010E0000BF030FE82464FF08E4128460BF0F8FDA3
:1010F00005D24FF08F4128460BF024FE054686F0BE
:101100000040844908600D980BF0F2FA854A864B3E
:10111000CDE906010AF0FCFDCDE908010AF00AFD5F
:10112000109050460BF0E4FA7E4A7F4BCDE9060161
:101130000AF0EEFDCDE908010AF0FCFC0F9028460C
:101140000BF0D6FA774A784BCDE906010AF0E0FDBC
:10115000CDE908010AF0EEFC0E9030460BF0C8FA1B
:101160004FF06632714BCDE906010AF0D1FDCDE9B1
:1011700008010AF0DFFC81460A980BF0B9FA4FF03B
:1011800066326A4BCDE906010AF0C2FDCDE90801DD
:101190000AF0D0FC044666480078022837D189F06E
:1011A000004002460390DDE90E1004F0A1FD8346E5
:1011B0000BF09EFA5F4A604BCDE904010AF0A8FDEE
:1011C00000225E4BCDE906010AF0B8FFCDE9080127
:1011D0000AF0B0FC4C49086022460E99109804F0C1
:1011E000E3FE83460BF084FA524A534BCDE90401E7
:1011F0000AF08EFD0022514BCDE906010AF09EFF58
:10120000CDE908010AF096FC4D4908606FE04848B6
:10121000007803286BD128460BF06AFACDE9020169
:1012200050460BF065FACDE90001DDE9022307F035
:1012300091FE0022414BCDE904010AF07FFF3D4AB7
:101240003D4BCDE906010AF063FDCDE908010AF046
:1012500071FC0C9028460BF04BFACDE902010D9879
:101260000BF046FACDE90001DDE9022307F072FE3A
:101270000022324BCDE904010AF060FF2D4A2E4BCB
:10128000CDE906010AF044FDCDE908010AF052FC5F
:101290000B9030460BF02CFA4FF06632294BCDE91B
:1012A00006010AF035FDCDE908010AF043FC83464A
:1012B00059460C98FFF7A0FB80F0004012490860E7
:1012C0000A980BF015FA4FF066321E4BCDE9060175
:1012D0000AF01EFDCDE908010AF02CFC83465946B0
:1012E0000B98FFF7B9FB80F00040154908600648ED
:1012F000006806490860084807600948056011B0A1
:10130000BDE8F08F18000020B0000020040000208D
:101310009C000020080000200C000020A2000020FB
:101320001C0000208FC2F5285C1F9A40665E8D402D
:1013300000000020F1D4C853FB2109400080664022
:10134000AC0000206666304010B500F09FF80446FF
:10135000034920460BF0F8FB0446204610BD000070
:10136000C3F5804010B50120164908600F2007F032
:10137000E7FF00201449C1F880011448007800F00C
:101380008000E8B11148007800F03F001049086083
:101390000846008800040860084600680D4909886E
:1013A00008440B49086008460068AA2148434FF4E6
:1013B0007A71B0FBF1F0064908600020034908800B
:1013C00010BD0000800121420000214210010020D8
:1013D0000C010020120100202948007830386421D7
:1013E000484327494978303901EB810100EB41013D
:1013F0002348807830380844224908802048C07843
:101400003038642148431E490979303901EB8101A4
:1014100000EB41011A4840793038084419494880A6
:1014200019480078092829D1154880793038642175
:1014300048431349C979303901EB810100EB41017F
:101440000F48007A303808440E4988800C48407AAA
:101450003038642148430A49897A303901EB8101E7
:1014600000EB41010648C07A303808440549C8807D
:1014700008468088C98848430249088170470000AF
:10148000AC0800208E0200203901002070B50A4807
:1014900000F080FD3221084800F08CFC064800F086
:1014A000BFFA84B220460BF007FB064603490BF057
:1014B0004BFB0546284670BDB80200203333533A33
:1014C0002DE9F04F87B083468A4658460AF0E3FD7F
:1014D0000022344BCDE900010AF030FE0022324BED
:1014E000CDE902010AF014FC804600222F4B0AF0DD
:1014F0000FFC064600222E4B0AF00AFC04460AF0B6
:1015000019FB059005980BF0F3F82A4A2A4BCDE910
:1015100002010AF013FE80460022284B0AF00EFE5C
:1015200006460022264B0AF0F3FB04460AF002FBB3
:101530002449086050460AF0AEFD0022194BCDE95F
:1015400000010AF0FBFD06460022174B0AF0E0FB03
:1015500004460022154B0AF0DBFB80460022144BA8
:101560000AF0D6FBCDE902010AF0E4FA04900498EF
:101570000BF0BEF880460F4A0F4B0AF0DFFD002249
:101580000E4BCDE902010AF0D9FD064600220C4BB4
:101590000AF0BEFB04460AF0CDFA0B49086007B01A
:1015A000BDE8F08F000069400000104000003E40A0
:1015B00000002640F1D4C853FB21094000C0504030
:1015C000000024403001002034010020F8B504461A
:1015D0000026002000904B492068884207D04A49E5
:1015E0002068884203D049492068884200D103E03E
:1015F0007E2147A007F09CFB00BF94F8240001283F
:1016000001D10220F8BD012084F8240000BF20464B
:10161000FFF7F0F806462046FFF71AF90646002EB7
:1016200069D1A06A20F4885040F00200A062022034
:1016300001F034FA43490968B1FBF0F04000009032
:1016400002E00098401E009000980028F9D1206820
:10165000806840F008002168886001F08BF805463A
:1016600016E001F087F8401B0A2811D9206880682D
:1016700000F0080060B1A06A20F0020040F0100005
:10168000A06200BF002084F8240000BF0120B9E759
:101690002068806800F008000028E2D12068806897
:1016A00040F004002168886001F064F8054616E007
:1016B00001F060F8401B0A2811D92068806800F00A
:1016C000040060B1A06A20F0020040F01000A062A7
:1016D00000BF002084F8240000BF012092E72068AA
:1016E000806800F004000028E2D1A06A20F0020027
:1016F00040F00100A06200BF002084F8240000BF79
:1017000030467FE70024014000280140003C0140B2
:101710002E2E2F53544D3332463178785F48414C4A
:101720005F4472697665722F5372632F73746D33E1
:1017300032663178785F68616C5F6164635F657899
:101740002E6300003C000020F8B505460C4600263C
:1017500000200090A1492868884207D0A049286845
:10176000884203D09F492868884200D104E040F2B3
:10177000D6719DA007F0DCFA206890B3206801289C
:101780002FD0206802282CD02068032829D0206878
:10179000042826D02068052823D02068062820D0D9
:1017A000206807281DD0206808281AD0206809283A
:1017B00017D020680A2814D020680B2811D0206880
:1017C0000C280ED020680D280BD020680E2808D0D9
:1017D00020680F2805D02068102802D02068112822
:1017E00000D104E040F2D7717FA007F0A1FA606851
:1017F00001282CD06068022829D06068032826D0F0
:101800006068042823D06068052820D06068062816
:101810001DD0606807281AD06068082817D0606853
:10182000092814D060680A2811D060680B280ED0EF
:1018300060680C280BD060680D2808D060680E28FE
:1018400005D060680F2802D06068102800D104E03D
:101850004FF4FB6164A007F06BFAA068A0B1A06828
:10186000012811D0A06802280ED0A06803280BD050
:10187000A068042808D0A068052805D0A06806281C
:1018800002D0A068072800D104E040F2D97156A028
:1018900007F04EFA00BF95F82400012801D102207C
:1018A000F8BD012085F8240000BF6068072812D227
:1018B0002868406B2179491E01EB81021F2191406C
:1018C00088432279521E02EB82022168914008432C
:1018D0002968486327E060680D2812D22868006BE9
:1018E0002179C91F01EB81021F2191408843227990
:1018F000D21F02EB820221689140084329680863E5
:1019000011E02868C06A21790D3901EB81021F219D
:101910009140884322790D3A02EB8202216891407E
:1019200008432968C86220680A2812D32868C0685A
:1019300021780A3901EB410207219140884322783E
:101940000A3A02EB4202A168914008432968C86044
:101950000FE028680069217801EB410207219140DE
:101960008843227802EB4202A1689140084329682B
:1019700008612068102802D02068112827D1174953
:10198000286888421ED12868806800F40000F0B9F9
:101990002868806840F40000296888602068102862
:1019A00015D11D4800681D49B0FBF1F000EB800027
:1019B0004000009002E00098401E0090009800282F
:1019C000F9D104E0A86A40F02000A862012600BF17
:1019D000002085F8240000BF304661E70024014064
:1019E00000280140003C01402E2E2F53544D33322D
:1019F000463178785F48414C5F4472697665722F52
:101A00005372632F73746D3332663178785F686117
:101A10006C5F6164632E63003C00002040420F0055
:101A200010B504460A492068884207D00949206851
:101A3000884203D008492068884200D104E040F27F
:101A4000E56106A007F074F92068C06C10BD0000C5
:101A50000024014000280140003C01402E2E2F535D
:101A6000544D3332463178785F48414C5F44726957
:101A70007665722F5372632F73746D3332663178CB
:101A8000785F68616C5F6164632E63002DE9F041EB
:101A90000446002700250026A84614B90120BDE809
:101AA000F08197492068884207D09649206888428B
:101AB00003D095492068884200D104E040F2A91182
:101AC00092A007F035F9606818B16068B0F5006F52
:101AD00000D104E04FF4D5718CA007F029F9A0687B
:101AE00018B1A068B0F5807F00D104E040F2AB11DE
:101AF00086A007F01DF9207B10B1207B012800D1C2
:101B000004E04FF4D67181A007F012F9E06988B3C0
:101B1000E069B0F5003F2DD0E069B0F5C02F29D0C5
:101B2000E069B0F5002F25D0E069B0F5202F21D075
:101B3000E069B0F5402F1DD0E069D8B1E069B0F59B
:101B4000003F17D0E069B0F5C02F13D0E069B0F5C1
:101B5000202F0FD0E069B0F5402F0BD0E069B0F531
:101B6000802F07D0E069B0F5402F03D0E069B0F5D1
:101B7000602F00D104E040F2AD1164A007F0D8F866
:101B8000A068002822D0206918B12069102800D848
:101B900004E040F2B1115DA007F0CAF8207D10B159
:101BA000207D012800D104E04FF4D97157A007F03F
:101BB000BFF8207D50B1A06918B1A069082800D8ED
:101BC00004E040F2B51151A007F0B2F8A06A30B9B4
:101BD0000020E06284F82400204600F0B3F820469C
:101BE000FEF708FE0746A06A00F01000002873D137
:101BF000002F7ED1A06A20F4885040F00200A0623D
:101C0000414AD4E90001904208D1E069B0F5402F83
:101C100002D14FF4002002E0E06900E0E0690143F6
:101C2000207B41EA40000643A068B0F5807F02D0E7
:101C3000A068012802D14FF4807000E00020054325
:101C4000207D012811D1207B38B9A069401E4FF4B6
:101C5000006141EA4030054307E0A06A40F02000FF
:101C6000A062E06A40F00100E0622068406820F471
:101C70006940284321684860206880682F490840EF
:101C8000304321688860A068B0F5807F02D0A068EA
:101C9000012802D14FF4807000E00020B0F5807F71
:101CA00003D1208A401E4FEA00582068C06A20F401
:101CB000700040EA08002168C862206880682049F6
:101CC0000840B04209D10020E062A06A20F0020082
:101CD00040F00100A06211E00BE0A06A20F00200D9
:101CE00040F01000A062E06A40F00100E0620127CD
:101CF00004E0A06A40F01000A06201273846CEE65A
:101D00000024014000280140003C01402E2E2F53AA
:101D1000544D3332463178785F48414C5F447269A4
:101D20007665722F5372632F73746D333266317818
:101D3000785F68616C5F6164632E6300FDF7E1FFAB
:101D4000FE0E1FFF10B586B00446002002900390DF
:101D50000490059014492068884222D100BF13489E
:101D6000806940F40070114988610846806900F478
:101D70000070019000BF00BF00BF0846806940F0BE
:101D8000040088610846806900F00400019000BFEB
:101D900000BF202002900320039002A9044800F015
:101DA00073FA06B010BD000000240140001002408C
:101DB00000080140F8B504460D46002600200090BA
:101DC000002761492068884207D06049206888421E
:101DD00003D05F492068884200D104E040F2B3415B
:101DE0005CA006F0A5FF00F0C5FC064620688068F0
:101DF00000F4807050B1A06A40F02000A06200BFE3
:101E0000002084F8240000BF0120F8BD206840684D
:101E100000F4807020BB2068C06A00F47000F8B93C
:101E200017E0681CA8B125B100F0A4FC801BA842F3
:101E30000FD92068006800F0020050B9A06A40F095
:101E40000400A06200BF002084F8240000BF03202B
:101E5000DBE72068006800F002000028E1D053E0D2
:101E6000022000F01BFE47490968B1FBF0F0216831
:101E70000969454A114091B92168C9689211114018
:101E800069B921680969414A114031B92168C968B5
:101E90009211114009B9142117E0292115E0216898
:101EA00009693A4A114021B92168C9689211114063
:101EB00041B121680969364A114029B92168C968C8
:101EC000114009B9542100E0FC2100FB01F718E0A2
:101ED000681C98B125B100F04DFC801BA8420DD9BB
:101EE0000098B8420AD2A06A40F00400A06200BF85
:101EF000002084F8240000BF032086E70098401CDF
:101F000000900098B842E3D36FF012002168086097
:101F1000A06A40F40070A0622068806800F460202D
:101F2000B0F5602F0DD1207B58B9A06A20F48070E5
:101F3000A062A06A00F4805018B9A06A40F00100C5
:101F4000A062002061E70000002401400028014059
:101F5000003C01402E2E2F53544D333246317878B9
:101F60005F48414C5F4472697665722F5372632FEC
:101F700073746D3332663178785F68616C5F616469
:101F8000632E63003C0000202449922492244912CD
:101F90004992240070B504460025524920688842C1
:101FA00007D051492068884203D0504920688842B0
:101FB00000D104E040F211414DA006F0B9FE00BF8F
:101FC00094F82400012801D1022070BD012084F87A
:101FD000240000BF2046FEF73BFC0546002D79D1CA
:101FE000A06A40F20121884340F48070A0623E491B
:101FF0002068884209D13B48001D006800F4702029
:1020000008B9012002E0002000E0012078B1A06AB8
:1020100020F48010A0622068406800F4806000B363
:10202000A06A20F4005040F48050A06219E0A06A39
:1020300040F48010A0622B492068884203D02A49CE
:102040002068884205D12748001D006800F48060A0
:1020500000E0002028B1A06A20F4005040F4805035
:10206000A062A06A00F4805020B1E06A20F006006F
:10207000E06201E00020E06200BF002084F824005C
:1020800000BFC01E216808602068806800F46020DE
:10209000B0F5602F17D114492068884209D1114842
:1020A000001D006800F4702008B9012002E0002043
:1020B00000E0012038B12068806840F4A000216869
:1020C00088600CE006E02068806840F48010216899
:1020D000886004E000BF002084F8240000BF284688
:1020E00073E700000024014000280140003C01404B
:1020F0002E2E2F53544D3332463178785F48414C61
:102100005F4472697665722F5372632F73746D33F7
:1021100032663178785F68616C5F6164632E63005A
:1021200070B5044600F026FB06462546681C10B133
:1021300004480078054400BF00F01CFB801BA84247
:10214000FAD370BD380000202DE9F0478046B8F57D
:10215000805F72D13A480088002804DD3848008842
:10216000401E3749088005F075FC36480078FEF7B8
:10217000FDFE002005F01CFB8146012005F018FB48
:10218000444221464846FFF79BF92F4801682F48F3
:102190000068FEF7D7FB05462146484606F060FA80
:1021A00006462B48006806F08FF80746A819384401
:1021B00028490860A819C01B2749086025480068FD
:1021C00005F05EF8234908602348006805F058F8D8
:1021D00021490860214A51421E48006805F05DF817
:1021E0001C4908601D4A51421B48006805F055F81B
:1021F0001949086023464A4614480168184800688F
:1022000005F056F810B101201649087022464946DB
:102210000E48006805F0CAF810B100201149087096
:10222000114801680948006806F08CF828B90A4886
:1022300001680848006805F05BFCBDE8F087000015
:102240001C010020000000200800002004000020E5
:102250000C0000201000002014000020D8F5FFFF23
:102260001C0000202C0000202001002010B5044696
:1022700004480068204020B1024804602046FFF76F
:1022800063FF10BD140401402DE9FC5F05460C46B8
:10229000002700200190E648854211D0E54885429C
:1022A0000ED0E54885420BD0E448854208D0E4488A
:1022B000854205D0E348854202D0E348854200D1FB
:1022C00003E0BD21E1A006F033FD208880B220B1FB
:1022D00020686FF30F0000B903E0BE21DBA006F019
:1022E00027FD606830B36068012823D0606811283A
:1022F00020D0606802281DD0606812281AD0E049FA
:102300006068884216D0DF496068884212D0DE4992
:10231000606888420ED0DD49606888420AD0DC4996
:102320006068884206D0DB496068884202D06068F5
:10233000032800D103E0BF21C4A006F0F9FC6FE13F
:10234000012000FA07F8206800EA0806464575D122
:10235000B748854211D0B74885420ED0B64885426D
:102360000BD0B648854208D0B548854205D0B5485F
:10237000854202D0B448854200D103E0CD21B3A00C
:1023800006F0D6FCBE4A6068811A90426AD00EDC24
:10239000032875D006DC002863D0012819D0022854
:1023A0006FD139E0112825D01228F9D147E0B1F5D5
:1023B000881F5BD006DCB1F5803F56D0B1F5801F99
:1023C00079D150E0B1F5001F4ED0B1F5041F72D1A4
:1023D0004DE0E068022805D0E068012802D0E068FE
:1023E000032800D103E0D52198A006F0A1FCE06805
:1023F000019061E0E068022805D0E068012802D081
:10240000E068032800D103E0DC2190A006F090FCF6
:10241000E068001D01904FE0E068022805D0E06808
:10242000012802D0E068032800D103E0E32187A05F
:1024300006F07EFCE068083001903DE0D2E0E06804
:10244000022805D0E068012802D0E068032800D106
:1024500003E0EA217DA006F06BFCE0680C300190FF
:102460002AE000BF00BF00BF00BF00BF00BFA068E0
:1024700028B1A068012802D0A068022802D105E096
:1024800016E018E0F72171A006F052FCA06810B920
:10249000042001900BE0A068012804D108200190DD
:1024A000C5F8108003E008200190C5F8148003E00F
:1024B0000020019000E000BF00BFFF2E01D8284699
:1024C00000E0281D8246FF2E01D8B80002E0A7F1E7
:1024D000080080008346DAF800000F2101FA0BF1B2
:1024E0008843019901FA0BF10843CAF800006068BB
:1024F00000F08050B0F1805F74D100BF6648806901
:1025000040F00100644988610846806900F00100DC
:10251000009000BF00BF4FEAB130B90850F82190D9
:10252000B807010F0F20884029EA0009404885427A
:1025300001D1002019E03F48854201D1012014E07B
:102540003D48854201D102200FE03C48854201D13F
:1025500003200AE03A48854201D1042005E03948C9
:10256000854201D1052000E00620B907090F884007
:1025700040EA09094948B90840F82190606800F428
:102580008010B0F5801F05D14548006830434449AC
:10259000086004E042480068B04341490860606850
:1025A00000F40010B0F5001F07D13D48001D006881
:1025B00030433B49091D086006E03948001D0068AA
:1025C000B0433749091D0860606800F40030B0F579
:1025D000003F08D13248001F006830433049091FCE
:1025E000086007E01BE02E48001F0068B0432C493C
:1025F000091F0860606800F48030B0F5803F07D1A3
:10260000274808380068304325490839086006E043
:10261000234808380068B0432149083908607F1C06
:102620002068F84000287FF48BAEBDE8FC9F0000D6
:1026300000080140000C014000100140001401405E
:1026400000180140001C0140002001402E2E2F5395
:10265000544D3332463178785F48414C5F4472695B
:102660007665722F5372632F73746D3332663178CF
:10267000785F68616C5F6770696F2E6300000000AF
:102680000000111000002110000031100000121095
:10269000000022100000321000100240080001402B
:1026A0000804014070B506460C46A0B218B1200CD3
:1026B000000400B904E04FF4DA7105A006F038FB1D
:1026C000B068204008B1012500E00025284670BD13
:1026D0002E2E2F53544D3332463178785F48414C7B
:1026E0005F4472697665722F5372632F73746D3312
:1026F00032663178785F68616C5F6770696F2E63EE
:102700000000000070B506460C461546A0B218B190
:10271000200C000400B904E04FF4EA7108A006F0B0
:1027200007FB0DB1012D00D104E040F2D51104A04A
:1027300006F0FEFA0DB1346101E02004306170BD95
:102740002E2E2F53544D3332463178785F48414C0A
:102750005F4472697665722F5372632F73746D33A1
:1027600032663178785F68616C5F6770696F2E637D
:1027700000000000014800687047000030000020A1
:102780000348006803490978084401490860704714
:10279000300000203800002010B50848006840F0E4
:1027A000100006490860032000F038F9002000F00E
:1027B00007F800F02BF8002010BD000000200240B8
:1027C00070B504460E4800784FF47A71B1FBF0F012
:1027D0000C490968B1FBF0F5284600F0EDFF08B19F
:1027E000012070BD102C07D200222146501E00F09F
:1027F000AFF80548046001E00120F2E70020F0E7AF
:10280000380000203C0000203400002008B500BF44
:102810001348806940F001001149886108468069C9
:1028200000F00100009000BF00BF00BF0846C06973
:1028300040F08050C8610846C06900F080500090A8
:1028400000BF00BF052000F0E9F800BF0549486857
:1028500020F0E06040F00070486000BF08BD00005C
:10286000001002400000014010B50446002C00DBBF
:1028700003E0CD210FA006F05BFA2046002817DB0D
:1028800000F01F0201219140174A430942F823102A
:1028900000BF00BF00BFBFF34F8F00BF00BF00BF2E
:1028A00000BF00BF00BFBFF36F8F00BF00BF00BFFE
:1028B00000BF10BD2E2E2F53544D33324631787841
:1028C0005F48414C5F4472697665722F5372632F83
:1028D00073746D3332663178785F68616C5F636FF3
:1028E000727465782E63000080E100E010B5044644
:1028F000002C00DB03E0BD2108A006F019FA2046F9
:10290000002809DB00F01F020121914042099200DA
:1029100002F1E022C2F8001100BF10BD2E2E2F538D
:10292000544D3332463178785F48414C5F44726988
:102930007665722F5372632F73746D3332663178FC
:10294000785F68616C5F636F727465782E630000F6
:102950002DE9F05F80460C4615460027102D00D269
:1029600003E0A92120A006F0E3F9102C00D203E037
:10297000AA211DA006F0DCF905F092FF07463946B2
:1029800022462B4601F00700C0F1070ABAF1040FF6
:1029900002D94FF0040A01E0C0F1070AD14600F164
:1029A000040ABAF1070F02D24FF0000A01E0A0F1C9
:1029B000030AD4464FF0010A0AFA09FAAAF1010AF9
:1029C0000AEA020A0AFA0CFA4FF0010B0BFA0CFBA6
:1029D000ABF1010B0BEA030B4AEA0B06314640460A
:1029E00005F07AFFBDE8F09F2E2E2F53544D333261
:1029F000463178785F48414C5F4472697665722F42
:102A00005372632F73746D3332663178785F686107
:102A10006C5F636F727465782E63000010B50446B6
:102A2000072C07D0062C05D0052C03D0042C01D090
:102A3000032C00D103E0912109A006F079F900BF31
:102A400004F00701134A10684FF6FF021040124AC3
:102A5000024342EA01200F4A106000BF10BD00008F
:102A60002E2E2F53544D3332463178785F48414CE7
:102A70005F4472697665722F5372632F73746D337E
:102A800032663178785F68616C5F636F7274657805
:102A90002E6300000CED00E00000FA052DE9F04780
:102AA00004464FF00008002600270025A94604F040
:102AB000010078B904F0020002280BD004F00400F1
:102AC000042807D004F00800082803D004F0100000
:102AD000102800D104E04FF4CA713EA006F028F996
:102AE000042C37D004DC012C3CD0022C6CD160E0EB
:102AF000082C33D0102C67D143484568006800F09B
:102B0000807008B34148C5F38341475C05F48030C9
:102B100078B13D484068C0F340403D4911F800801D
:102B200005F4803040B13B48B0FBF8F000FB07F6FD
:102B300002E0394807FB00F63348406800F48000A3
:102B4000B0F5800F01D1B14603E070000321B0FB66
:102B5000F1F93AE000F0EAFA814636E000F0E6FAF0
:102B6000814632E02848056A05F44070B0F5807F60
:102B700005D105F0020010B14FF4004918E005F44A
:102B80004070B0F5007F07D11F48406A00F0020096
:102B900010B149F640490BE005F44070B0F5407FB4
:102BA00006D11948006800F4003008B14FF22449FA
:102BB0000BE000F0ABFA14494968C1F38131491CBC
:102BC0004900B0FBF1F900E000BF00BF4846BDE896
:102BD000F08700002E2E2F53544D33324631787833
:102BE0005F48414C5F4472697665722F5372632F60
:102BF00073746D3332663178785F68616C5F7263CD
:102C0000635F65782E6300000010024030CF00083B
:102C100040CF000800127A0000093D00F8B50446D4
:102C200000260025207800F0010098B9207800F0F7
:102C3000020002280ED0207800F00400042809D0F9
:102C4000207800F00800082804D0207800F0100058
:102C5000102800D103E06A2161A006F069F820780D
:102C600000F0010000287DD00027606858B160683E
:102C7000B0F5807F07D06068B0F5007F03D0606852
:102C8000B0F5407F00D103E0722155A006F050F866
:102C90006048C06900F0805070B900BF5D48C069ED
:102CA00040F080505B49C8610846C06900F0805020
:102CB000009000BF00BF01275748006800F48070F3
:102CC000B0B95548006840F4807053490860FFF778
:102CD00051FD064606E0FFF74DFD801B642801D933
:102CE0000320F8BD4C48006800F480700028F2D042
:102CF0004848006A00F440752DB3A08800F4407085
:102D0000A84220D04348006A20F44075012043497E
:102D10000860002008603F48056205F0010090B19E
:102D2000FFF728FD064608E0FFF724FD801B41F26F
:102D30008831884201D90320D3E73648006A00F081
:102D400002000028F0D03348006A20F44070616827
:102D5000084330490862012F06D10846C06920F0B7
:102D6000805000E001E0C86100BF207800F0020060
:102D700002281AD1A06858B1A068B0F5804F07D0DA
:102D8000A068B0F5004F03D0A068B0F5404F00D167
:102D900003E0B72112A005F0CBFF1E48406820F4E5
:102DA0004040A16808431B494860207800F01000AB
:102DB000102813D16069B0F5800F01D0606900B9A7
:102DC00004E040F2131106A005F0B2FF114840687C
:102DD00020F48000616908430E494860002080E7C4
:102DE0002E2E2F53544D3332463178785F48414C64
:102DF0005F4472697665722F5372632F73746D33FB
:102E000032663178785F68616C5F7263635F6578A2
:102E10002E63000000100240007000404004424257
:102E200070B504460D460CB9012070BD207800F045
:102E3000010070B9207800F00200022809D0207843
:102E400000F00400042804D0207800F008000828CE
:102E500000D104E040F2363190A005F069FF1DB1C9
:102E6000012D01D0022D00D104E040F237318BA0BA
:102E700005F05EFF9548006800F00700A8420ED2FA
:102E80009248006820F007002843904908600846EF
:102E9000006800F00700A84201D00120C5E72078B3
:102EA00000F0020002283DD1207800F00400042840
:102EB00005D18748406840F4E06085494860207843
:102EC00000F00800082805D18148406840F46050AF
:102ED0007F494860A068B8B1A068802814D0A06875
:102EE000902811D0A068A0280ED0A068B0280BD0E0
:102EF000A068C02808D0A068D02805D0A068E02825
:102F000002D0A068F02800D104E040F25D3163A057
:102F100005F00EFF6E48406820F0F000A1680843FD
:102F20006B494860207800F00100002845D06068B7
:102F300028B16068012802D06068022800D104E04E
:102F40004FF4597155A005F0F3FE6068012806D1D1
:102F50005F48006800F4003090B9012065E76068C0
:102F6000022806D15A48006800F0007040B90120DC
:102F70005BE75748006800F0020008B9012054E7F9
:102F80005348406820F00300616808435049486096
:102F9000FFF7F0FB064608E0FFF7ECFB801B41F271
:102FA0008831884201D903203FE74948406800F052
:102FB0000C006168B0EB810FEED14448006800F06E
:102FC0000700A8420ED94148006820F007002843B6
:102FD0003E4908600846006800F00700A84201D09A
:102FE000012022E7207800F0040004281FD1E068C7
:102FF00078B1E068B0F5806F0BD0E068B0F5A06FF5
:1030000007D0E068B0F5C06F03D0E068B0F5E06FBE
:1030100000D104E040F2A23120A005F089FE2C4846
:10302000406820F4E060E16808432949486020785E
:1030300000F00800082820D1206978B12069B0F597
:10304000806F0BD02069B0F5A06F07D02069B0F574
:10305000C06F03D02069B0F5E06F00D104E040F20A
:10306000A9310EA005F064FE1948406820F46050B4
:10307000216940EAC1001649486000F057F8144938
:103080004968C1F30311134A515CC84012490860F2
:1030900012480068FFF794FB0020C6E62E2E2F533F
:1030A000544D3332463178785F48414C5F44726901
:1030B0007665722F5372632F73746D333266317875
:1030C000785F68616C5F7263632E6300002002406A
:1030D0000010024042CF00083C00002034000020D5
:1030E00001480068704700003C00002000B5FFF771
:1030F000F7FF04494968C1F30221034A515CC84003
:1031000000BD00000010024052CF000800B5FFF7DC
:10311000E7FF04494968C1F3C221034A515CC84032
:1031200000BD00000010024052CF000870B5002121
:103130000022002400230020134D696801F00C05D3
:10314000F5B1042D02D0082D19D101E00F4819E086
:103150000F4DC1F38346AB5D01F4803555B10A4D87
:103160006D68C5F340450B4E725D084D5D43B5FB80
:10317000F2F402E0084D03FB05F4204602E000BF34
:10318000024800BF00BF70BD0010024000127A006C
:103190001ECF00082ECF000800093D00F8B50446F8
:1031A0000CB90120F8BD206890B1207800F0010032
:1031B00070B9207800F00200022809D0207800F0D1
:1031C0000800082804D0207800F00400042800D16A
:1031D00004E040F26511FAA005F0AAFD207800F0A5
:1031E0000100002870D0606838B16068B0F5803F99
:1031F00003D06068B0F5A02F00D104E040F26B115D
:10320000EFA005F095FDFA48406800F00C00042896
:103210000CD0F748406800F00C00082811D1F448A1
:10322000406800F48030B0F5803F0AD1F048006873
:1032300000F40030002860D0606800285DD10120D3
:10324000B0E700BF6068B0F5803F06D1E84800688D
:1032500040F48030E649086028E0606858B9E448E6
:10326000006820F48030E24908600846006820F4D5
:10327000802008601AE06068B0F5A02F0BD1DC4810
:10328000006840F48020DA4908600846006840F48D
:10329000803008600AE0D648006820F48030D449C5
:1032A00008600846006820F48020086000BF60685D
:1032B00090B1FFF75FFA054607E0FFF75BFA401BA6
:1032C000642802D903206DE717E0C948006800F4BC
:1032D00000300028F1D010E0FFF74CFA054606E078
:1032E000FFF748FA401B642801D903205AE7C04879
:1032F000006800F400300028F2D1207800F00200CD
:1033000002286BD1206910B12069012800D104E0A6
:1033100040F29F11AAA005F00BFD60691F2800D89C
:1033200004E04FF4D071A6A005F002FDB04840685B
:1033300000F00C0050B1AE48406800F00C000828C6
:1033400018D1AB48406800F4803098B9A8480068AC
:1033500000F0020020B12069012801D0012021E7FE
:10336000A348006820F0F800616940EAC100A04964
:10337000086033E02069E8B101209E490860FFF74A
:10338000F9F9054606E0FFF7F5F9401B022801D9D7
:10339000032007E79648006800F002000028F2D0FA
:1033A0009348006820F0F800616940EAC100904944
:1033B000086013E000208F490860FFF7DBF905463D
:1033C00006E0FFF7D7F9401B022801D90320E9E600
:1033D0008748006800F002000028F2D1207800F051
:1033E0000800082838D1A06910B1A069012800D1CF
:1033F00004E04FF4F07172A005F09AFCA069B8B136
:1034000001207D490860FFF7B5F9054606E0FFF7A2
:10341000B1F9401B022801D90320C3E67448406A71
:1034200000F002000028F2D0012004F001F813E0BF
:10343000002071490860FFF79DF9054606E0FFF797
:1034400099F9401B022801D90320ABE66848406A7D
:1034500000F002000028F2D1207800F004000428D7
:1034600078D10027E06828B1E068012802D0E06840
:10347000052800D104E040F20F2151A005F058FCCE
:103480005B48C06900F0805070B900BF5848C069FF
:1034900040F080505649C8610846C06900F080502D
:1034A000009000BF00BF01275448006800F48070FE
:1034B000B0B95248006840F4807050490860FFF786
:1034C00059F9054606E0FFF755F9401B642801D974
:1034D000032067E64948006800F480700028F2D0B5
:1034E00000BFE068012806D14148006A40F00100B1
:1034F0003F49086227E0E06858B93D48006A20F07B
:1035000001003B4908620846006A20F00400086296
:1035100019E0E06805280BD13548006A40F0040046
:10352000334908620846006A40F0010008620AE078
:103530002F48006A20F001002D4908620846006A01
:1035400020F00400086200BFE068A0B1FFF712F9A4
:10355000054609E02BE0FFF70DF9401B41F28831E9
:10356000884201D903201DE62148006A00F00200CC
:103570000028F0D012E0FFF7FDF8054608E0FFF75D
:10358000F9F8401B41F28831884201D9032009E64D
:103590001748006A00F002000028F0D1012F05D181
:1035A0001348C06920F080501149C86100BFE0692C
:1035B00028B1E069012802D0E069022820D125E085
:1035C0002E2E2F53544D3332463178785F48414C7C
:1035D0005F4472697665722F5372632F73746D3313
:1035E00032663178785F68616C5F7263632E630066
:1035F000001002400000424280044242007000403D
:1036000040F2AD21AFF2480005F092FBE0690028DE
:1036100075D06748406800F00C00082870D0E06959
:1036200002286ED1206A18B1206AB0F5803F00D11F
:1036300005E040F2B621AFF2780005F079FB606A50
:10364000B8B3606AB0F5802F33D0606AB0F5002F50
:103650002FD0606AB0F5402F2BD0606AB0F5801F84
:1036600027D0606AB0F5A01F23D0606AB0F5C01FF4
:103670001FD0606AB0F5E01F1BD0606AB0F5001F74
:1036800017D0606AB0F5101F13D0606AB0F5201F24
:103690000FD0606AB0F5301F0BD0606AB0F5401FE4
:1036A00007D0606AB0F5501F03D0606AB0F5601FA4
:1036B00000D105E040F2B721AFF2FC0005F038FB85
:1036C00000203C490866FFF755F8054606E0FFF77D
:1036D00051F8401B022801D9032063E534480068F3
:1036E00000F000700028F2D1206AB0F5803F17D1B9
:1036F000A06818B1A068B0F5003F03D108E055E01C
:1037000042E02CE040F2CD21AFF24C1005F010FB6E
:103710002748406820F40030A168084324494860E5
:10372000D4E9080108432249496821F47411084387
:103730001F49486001201F490866FFF71BF805462E
:1037400006E0FFF717F8401B022801D9032029E5FE
:103750001748006800F000700028F2D026E0002032
:1037600014490866FFF706F8054606E0FFF702F879
:10377000401B022801D9032014E50D48006800F021
:1037800000700028F2D111E0E069012800D109E5BC
:103790000748466806F48031206A814204D106F465
:1037A0007011606A814201D00120FBE40020F9E43D
:1037B000001002400000424270B504462546681ED3
:1037C000B0F1807F01D301200FE0681E4FF0E021AF
:1037D00048610F214FF0FF3005F07EF800204FF0D8
:1037E000E021886107200861002070BD70477047A4
:1037F00070B506460C4600254E493068884203D015
:103800004D493068884200D104E040F2F1714BA08C
:1038100005F08EFA2068B0F5006F01D0206800B97D
:1038200004E040F2F27145A005F082FA6068B0F55C
:10383000806F01D0606800B904E040F2F3713FA0EE
:1038400005F076FAA06858B1A068B0F5807F07D07F
:10385000A068B0F5007F03D0A068B0F5407F00D12C
:1038600004E040F2F47135A005F062FAE068FF2848
:1038700000D804E040F2F57130A005F059FA206953
:10388000B0F5805F01D0206900B904E040F2F67124
:103890002AA005F04DFA606918B16069B0F5005FC3
:1038A00000D104E040F2F77124A005F041FAE0698C
:1038B000B0F5804F01D0E06900B904E04FF4FF613A
:1038C0001EA005F035FA00BF96F83C00012801D192
:1038D000022070BD012086F83C0000BF25F0FF00EB
:1038E000E16840EA010525F44070A16840EA01055D
:1038F00025F48060616840EA010525F400602168D4
:1039000040EA010525F48050216940EA010525F4CB
:103910000050616940EA010525F48040E16940EA10
:1039200001053068456400BF002086F83C0000BFF8
:1039300000BFCEE7002C0140003401402E2E2F5353
:10394000544D3332463178785F48414C5F44726958
:103950007665722F5372632F73746D3332663178CC
:10396000785F68616C5F74696D5F65782E630000D5
:103970002DE9F04104460D464749206888421BD096
:1039800046492068884217D02068B0F1804F13D094
:103990004349206888420FD04249206888420BD0B2
:1039A00041492068884207D040492068884203D0B6
:1039B0003F492068884200D104E040F2B4713DA044
:1039C00005F0B6F92868A0B12868102811D0286839
:1039D00020280ED0286830280BD02868402808D02E
:1039E0002868502805D02868602802D028687028E8
:1039F00000D104E040F2B5712EA005F099F9686895
:103A0000802801D0686800B904E040F2B67129A0AE
:103A100005F08EF900BF94F83C00012802D1022085
:103A2000BDE8F081012084F83C0000BF022084F84A
:103A30003D00206847682068866827F0700728687E
:103A400007432068476014492068884213D013490F
:103A5000206888420FD02068B0F1804F0BD0104909
:103A60002068884207D00F492068884203D00E4959
:103A70002068884205D126F08006686806432068E1
:103A80008660012084F83D0000BF002084F83C00DF
:103A900000BF00BFC4E70000002C0140003401401B
:103AA0000004004000080040000C004000100040EE
:103AB000001400402E2E2F53544D33324631787867
:103AC0005F48414C5F4472697665722F5372632F71
:103AD00073746D3332663178785F68616C5F7469D6
:103AE0006D5F65782E63000010B504460CB90120A7
:103AF00010BD4749206888421BD04649206888424B
:103B000017D02068B0F1804F13D043492068884215
:103B10000FD04249206888420BD041492068884232
:103B200007D040492068884203D03F492068884236
:103B300000D104E040F213113CA005F0F9F8A068B0
:103B400058B1A068102808D0A068202805D0A06827
:103B5000402802D0A068602800D104E04FF48A71A8
:103B600032A005F0E5F8206938B12069B0F5807F12
:103B700003D02069B0F5007F00D104E040F21511B8
:103B80002AA005F0D5F8E06820B1E068B0F5803FE4
:103B900000D204E04FF48B7124A005F0C9F8A069AD
:103BA00010B1A069802800D104E040F217111FA0D5
:103BB00005F0BEF894F83D0028B9002084F83C00D8
:103BC000204600F04BF8022084F83D00211D2068BB
:103BD00004F030F8012084F8460000BF84F83E006D
:103BE00001213F200155402001554120015500BFD2
:103BF00000BF012084F842004320015544200155B4
:103C00004520015500BF012084F83D0000206FE7EA
:103C1000002C014000340140000400400008004036
:103C2000000C004000100040001400402E2E2F53C6
:103C3000544D3332463178785F48414C5F44726965
:103C40007665722F5372632F73746D3332663178D9
:103C5000785F68616C5F74696D2E630010B586B023
:103C60000446002002900390049005902068B0F173
:103C7000804F2CD100BF2D48C06940F001002B4976
:103C8000C8610846C06900F00100019000BF00BF94
:103C900000BF0846806940F00400886108468069DA
:103CA00000F00400019000BF00BF0220029000203D
:103CB0000390049002A91E48FEF7E6FA012211467D
:103CC0001C20FEF745FE1C20FEF710FE2CE01949D3
:103CD0002068884216D100BF1448C06940F0100027
:103CE0001249C8610846C06900F01000019000BF89
:103CF00000BF022203213620FEF72AFE3620FEF7FF
:103D0000F5FD11E00C49206888420DD100BF07483D
:103D1000806940F40050054988610846806900F4D4
:103D20000050019000BF00BF06B010BD001002405F
:103D300000080140001000400034014070B5044606
:103D40003049206888421BD02F492068884217D00C
:103D50002068B0F1804F13D02C49206888420FD0E2
:103D60002B49206888420BD02A492068884207D016
:103D700029492068884203D028492068884200D118
:103D800004E04FF4E87126A004F0D2FF94F83D005F
:103D9000012801D0012070BD022084F83D00206878
:103DA000C06840F001002168C86016492068884258
:103DB00013D01549206888420FD02068B0F1804F99
:103DC0000BD012492068884207D0114920688842E8
:103DD00003D01049206888420CD12068806800F028
:103DE0000705062D0CD02068006840F0010021680E
:103DF000086005E02068006840F001002168086064
:103E00000020C8E7002C01400034014000040040BD
:103E100000080040000C004000100040001400406A
:103E20002E2E2F53544D3332463178785F48414C13
:103E30005F4472697665722F5372632F73746D33AA
:103E400032663178785F68616C5F74696D2E6300EB
:103E50002DE9F04104460D46002700BF94F83C00D0
:103E6000012802D10220BDE8F081012084F83C0045
:103E700000BF022084F83D002868B0F5805F1AD0AA
:103E80002868702817D02868B0F5005F13D028681C
:103E9000402810D0286850280DD0286860280AD003
:103EA000286840B12868102805D02868202802D04A
:103EB0002868302800D104E041F2BE41FBA004F0A4
:103EC00037FF2068866826F0770626F47F4620684C
:103ED0008660286850287DD00CDC20287BD004DC4C
:103EE000002879D0102878D1C5E1302876D0402834
:103EF000F9D17AE1602872D070282DD0B0F5805FBA
:103F000003D0B0F5005FEED189E0F4492068884223
:103F10001BD0F3492068884217D02068B0F1804F49
:103F200013D0F049206888420FD0EF4920688842BA
:103F30000BD0EE492068884207D0ED4920688842BE
:103F400003D0EC492068884200D104E041F2CA4124
:103F5000D6A004F0EDFEDCE1E0492068884213D0F1
:103F6000DF49206888420FD02068B0F1804F0BD025
:103F7000DC492068884207D0DB492068884203D0AA
:103F8000DA492068884200D104E041F2D141C7A05B
:103F900004F0CEFEA86858B1A868B0F5805F07D0DD
:103FA000A868B0F5005F03D0A868B0F5405F00D105
:103FB00004E041F2D441BDA004F0BAFE6868B0F557
:103FC000004F10D0686870B1686860B168680228F6
:103FD00009D005E07FE04FE14CE198E14DE1BFE021
:103FE00068680A2800D104E041F2D541AFA004F08E
:103FF0009FFEE8680F2800D804E041F2D641ABA04C
:1040000004F096FED5E902136A68206803F0C0FE4A
:104010002068866846F077062068866079E1AF49B7
:104020002068884213D0AE49206888420FD02068AB
:10403000B0F1804F0BD0AB492068884207D0AA4925
:104040002068884203D0A9492068884200D104E052
:1040500041F2E94195A004F06BFEA86858B1A86848
:10406000B0F5805F07D0A868B0F5005F03D0A868FE
:10407000B0F5405F00D104E041F2EC418BA004F0C8
:1040800057FE6868B0F5004F09D0686838B16868B5
:1040900028B16868022802D068680A2800D104E0C4
:1040A00041F2ED4181A004F043FEE8680F2800D8FA
:1040B00004E041F2EE417DA004F03AFED5E902139E
:1040C0006A68206803F064FE2068806840F48040DD
:1040D000216888601DE181492068884213D08049A9
:1040E000206888420FD02068B0F1804F0BD07D4906
:1040F0002068884207D07C492068884203D07B49E9
:104100002068884200D104E041F2FD4167A004F03C
:104110000FFE6868B0F5004F09D0686838B168686C
:1041200028B16868022802D068680A2800D104E033
:104130004FF4A8515DA004F0FBFDE8680F2800D8FB
:1041400004E041F2015159A004F0F2FDEA68696807
:10415000206803F0FBFF5021206803F024FED8E024
:104160005E492068884213D05D49206888420FD09C
:104170002068B0F1804F0BD05A492068884207D0A0
:1041800059492068884203D058492068884200D1A4
:1041900004E041F20D5145A004F0CAFD6868B0F595
:1041A000004F09D0686838B1686828B1686802288B
:1041B00002D068680A2800D104E041F210513BA007
:1041C00004F0B6FDE8680F2800D804E041F2115170
:1041D00036A004F0ADFDEA686968206804F008F8CC
:1041E0006021206803F0DFFD93E03C4920688842AD
:1041F00013D03B49206888420FD02068B0F1804F2F
:104200000BD038492068884207D037492068884257
:1042100003D036492068884200D104E041F21D51A4
:1042200022A004F085FD6868B0F5004F09D06868E9
:1042300038B1686828B16868022802D068680A281E
:1042400000D104E04FF4A95118A004F071FDE86812
:104250000F2800D804E041F2215114A004F068FDB9
:10426000EA686968206803F071FF4021206803F064
:104270009AFD4EE000BF00BF00BF18492068884289
:1042800013D01749206888420FD02068B0F1804FC2
:104290000BD014492068884207D01349206888420F
:1042A00003D012492068884226D12BE02E2E2F53AE
:1042B000544D3332463178785F48414C5F447269DF
:1042C0007665722F5372632F73746D333266317853
:1042D000785F68616C5F74696D2E6300002C01402B
:1042E000003401400004004000080040000C004081
:1042F000001000400014004041F23051AFF2540071
:1043000004F016FD2968206803F04DFD01E0012747
:1043100000BF00BF012084F83D0000BF002084F8EA
:104320003C0000BF38469EE52DE9F04104460D46AD
:1043300014B90120BDE8F08194492068884213D067
:104340009349206888420FD02068B0F1804F0BD08D
:1043500090492068884207D08F492068884203D05E
:104360008E492068884200D104E040F6D8318CA004
:1043700004F0DEFCA06858B1A068102808D0A0683E
:10438000202805D0A068402802D0A068602800D16D
:1043900004E040F6D93182A004F0CAFC206938B1AB
:1043A0002069B0F5807F03D02069B0F5007F00D18F
:1043B00004E040F6DA317AA004F0BAFCA06910B14A
:1043C000A069802800D104E040F6DB3174A004F03D
:1043D000AFFC2868012805D02868022802D0286888
:1043E000032800D104E040F6DC316DA004F0A0FC0D
:1043F000A868012805D0A868022802D0A868032868
:1044000000D104E040F6DD3165A004F091FCA8691C
:10441000012805D0A869022802D0A869032800D184
:1044200004E040F6DE315EA004F082FC686810B162
:104430006868022800D104E040F6DF3158A004F09B
:1044400077FC686910B16869022800D104E04FF474
:104450003E6153A004F06CFCE86840B1E8680428B1
:1044600005D0E868082802D0E8680C2800D104E0EC
:1044700040F6E1314AA004F05BFCE86940B1E8692C
:10448000042805D0E869082802D0E8690C2800D182
:1044900004E040F6E23142A004F04AFC28690F280B
:1044A00000D804E040F6E3313DA004F041FC286A66
:1044B0000F2800D804E040F6E43139A004F038FCBD
:1044C000E06820B1E068B0F5803F00D204E040F63B
:1044D000E53133A004F02CFC94F83D0028B900200D
:1044E00084F83C00204600F073F8022084F83D0078
:1044F0002068806844F20701884321688860211D94
:10450000206803F097FB2068D0F80880206886694F
:104510002068076A286840EA080840F203308643AA
:10452000A969A86840EA0120064340F60C4086438A
:104530004FF2F0008643E969E86840EA012006434B
:1045400028690001296A40EA0130064327F0220762
:104550006969686840EA011007432068C0F808806C
:104560002068866120680762012084F8460084F88C
:104570003E0001213F200155012084F842004320E4
:104580000155012084F83D000020D3E6002C0140B5
:10459000003401400004004000080040000C0040CE
:1045A0002E2E2F53544D3332463178785F48414C8C
:1045B0005F4472697665722F5372632F73746D3323
:1045C00032663178785F68616C5F74696D2E630064
:1045D00010B586B004460020029003900490059028
:1045E00029492068884224D100BF2848C06940F08A
:1045F00002002649C8610846C06900F00200019027
:1046000000BF00BF00BF0846806940F00400886119
:104610000846806900F00400019000BF00BFC02080
:10462000029000200390049002A91948FDF72CFE87
:1046300027E018492068884223D100BF1348C06989
:1046400040F004001149C8610846C06900F0040048
:10465000019000BF00BF00BF0846806940F008001D
:1046600088610846806900F00800019000BF00BF23
:10467000C020029000200390049002A90648FDF794
:1046800003FE06B010BD0000000400400010024010
:104690000008014000080040000C01402DE9F047EF
:1046A00004460D4694F83E603F20075D94F8428032
:1046B000432010F804903B492068884213D03A49BF
:1046C000206888420FD02068B0F1804F0BD0374966
:1046D0002068884207D036492068884203D035498F
:1046E0002068884200D104E040F6954132A004F0F1
:1046F0001FFB6DB9012E02D1B8F1010F02D00120CC
:10470000BDE8F087022084F83E0084F8420025E0EE
:10471000042D0CD1012F02D1B9F1010F01D00120DC
:10472000EEE702213F2001554320015516E0012EFE
:1047300007D1012F05D1B8F1010F02D1B9F1010F55
:1047400001D00120DCE7022084F83E0002213F2056
:104750000155022084F842004320015515B1042D73
:104760000CD105E001220021206803F0B1FA10E02D
:1047700001220421206803F0ABFA0AE001220021A3
:10478000206803F0A5FA01220421206803F0A0FAB2
:1047900000BF00BF2068006840F001002168086089
:1047A0000020ADE7002C014000340140000400402F
:1047B00000080040000C00402E2E2F53544D333281
:1047C000463178785F48414C5F4472697665722F54
:1047D0005372632F73746D3332663178785F68611A
:1047E0006C5F74696D2E630010B5044643488442C3
:1047F00043D14348007800F0800000287DD1404834
:10480000007800F04000C8B33D48008840F08000C8
:104810003B4908800421394800F0CAFE3949088024
:1048200000BF36480068006A41F21111084068B9BB
:1048300032480068006A8910084038B92F4800687B
:10484000006820F001002D490968086000BF2B486E
:104850000068006A20F0A00028490968086227481B
:104860000068006A254909680862244800680068F1
:1048700040F001002149096808603EE0FFE70020A0
:104880001F4908801F4908801D48008840F04000EB
:104890001B49088000BF19480068006A41F21111E5
:1048A000084068B915480068006A8910084038B99E
:1048B00012480068006820F001001049096808608B
:1048C00000BF00200D49096848620C480068006A72
:1048D00020F0A00009490968086208480068006AD9
:1048E00040F0200005490968086204480068006833
:1048F00040F0010001490968086010BDE80200208D
:1049000010010020120100202DE9F04104460D465F
:10491000164600278B492068884213D08A492068B0
:1049200088420FD02068B0F1804F0BD087492068B3
:10493000884207D086492068884203D0854920688C
:10494000884200D104E041F2190183A004F0F0F99B
:10495000286828B12868022802D028680A2800D1CF
:1049600004E041F21A017CA004F0E2F96868012831
:1049700005D06868022802D06868032800D104E0E6
:1049800041F21B0174A004F0D3F9A86840B1A868F3
:10499000042805D0A868082802D0A8680C2800D1EF
:1049A00004E041F21C016CA004F0C2F9E8680F2891
:1049B00000D804E041F21D0167A004F0B9F900BF7E
:1049C00094F83C00012802D10220BDE8F0810120CA
:1049D00084F83C0000BF96B9EB68D5E90012206866
:1049E00003F0C8FB2068806920F00C002168886112
:1049F00020688069A9680843216888619BE0042ECB
:104A000031D150492068884213D04F4920688842EC
:104A10000FD02068B0F1804F0BD04C4920688842FD
:104A200007D04B492068884203D04A492068884211
:104A300000D104E041F2330147A004F079F9EB68BA
:104A4000D5E90012206803F0E7FB2068806920F4B4
:104A500040602168886120688069A96840EA012077
:104A60002168886167E0082E30D136492068884285
:104A700013D03549206888420FD02068B0F1804FAC
:104A80000BD032492068884207D0314920688842DB
:104A900003D030492068884200D104E041F243014C
:104AA0002DA004F045F9EB68D5E90012206803F069
:104AB000D0FB2068C06920F00C002168C861206824
:104AC000C069A96808432168C86134E00C2E31D15F
:104AD0001C492068884213D01B49206888420FD0A7
:104AE0002068B0F1804F0BD018492068884207D069
:104AF00017492068884203D016492068884200D1AF
:104B000004E041F2530114A004F012F9EB68D5E976
:104B10000012206803F0B9FB2068C06920F44060EF
:104B20002168C8612068C069A96840EA012021683D
:104B3000C86100E0012700BF002084F83C0000BFEE
:104B4000384642E7002C0140003401400004004098
:104B500000080040000C00402E2E2F53544D3332DD
:104B6000463178785F48414C5F4472697665722FB0
:104B70005372632F73746D3332663178785F686176
:104B80006C5F74696D2E630010B504460CB901208A
:104B900010BD4749206888421BD04649206888429A
:104BA00017D02068B0F1804F13D043492068884265
:104BB0000FD04249206888420BD041492068884282
:104BC00007D040492068884203D03F492068884286
:104BD00000D104E040F2C4713CA004F0A9F8A06840
:104BE00058B1A068102808D0A068202805D0A06877
:104BF000402802D0A068602800D104E040F2C571CE
:104C000032A004F095F8206938B12069B0F5807FB2
:104C100003D02069B0F5007F00D104E040F2C671F6
:104C20002AA004F085F8E06820B1E068B0F5803F84
:104C300000D204E040F2C77124A004F079F8A06922
:104C400010B1A069802800D104E04FF4F9611FA0E1
:104C500004F06EF894F83D0028B9002084F83C0078
:104C6000204600F04BF8022084F83D00211D20680A
:104C700002F0E0FF012084F8460000BF84F83E0007
:104C800001213F200155402001554120015500BF21
:104C900000BF012084F84200432001554420015503
:104CA0004520015500BF012084F83D0000206FE73A
:104CB000002C014000340140000400400008004086
:104CC000000C004000100040001400402E2E2F5316
:104CD000544D3332463178785F48414C5F447269B5
:104CE0007665722F5372632F73746D333266317829
:104CF000785F68616C5F74696D2E6300704710B5F2
:104D0000044620680069C0F34000D8B12068C0683C
:104D1000C0F34000B0B16FF00200216808610120CB
:104D200020772068806900F0030018B12046FFF763
:104D30005BFD05E0204600F0D9F8204600F0E3FADC
:104D40000020207720680069C0F38000D8B1206877
:104D5000C068C0F38000B0B16FF004002168086142
:104D6000022020772068806900F4407018B1204646
:104D7000FFF73AFD05E0204600F0B8F8204600F0C5
:104D8000C2FA0020207720680069C0F3C000D8B1C3
:104D90002068C068C0F3C000B0B16FF0080021689F
:104DA0000861042020772068C06900F0030018B172
:104DB0002046FFF719FD05E0204600F097F8204651
:104DC00000F0A1FA0020207720680069C0F30010ED
:104DD000D8B12068C068C0F30010B0B16FF0100007
:104DE00021680861082020772068C06900F44070BD
:104DF00018B12046FFF7F8FC05E0204600F076F8F1
:104E0000204600F080FA002020772068006900F03A
:104E1000010058B12068C06800F0010030B16FF0A7
:104E2000010021680861204600F048FB2068006905
:104E3000C0F3C01058B12068C068C0F3C01030B1D2
:104E40006FF08000216808612046FEF7CFFC2068E3
:104E50000069C0F3801058B12068C068C0F38010AA
:104E600030B16FF0400021680861204600F058FC26
:104E700020680069C0F3401058B12068C068C0F3D2
:104E8000401030B16FF02000216808612046FEF725
:104E9000AEFC10BD10B586B0044600200290039011
:104EA000049005900E492068884217D100BF0D4834
:104EB000806940F010000B4988610846806900F065
:104EC0001000019000BF00BF4FF4707002900220EC
:104ED0000390059002A90448FDF7D6F906B010BD6D
:104EE00000340140001002400010014070470000F3
:104EF0002DE9F04104460D46164600273EB1042E2A
:104F000005D0082E03D00C2E01D03C2E00D104E099
:104F100041F27E018DA003F00BFF2868602802D0CB
:104F20002868702800D104E041F27F0187A003F0D7
:104F3000FFFEA86810B1A868022800D104E04FF471
:104F4000845182A003F0F4FE286910B12869042876
:104F500000D104E041F281017CA003F0E9FE00BF32
:104F600094F83C00012802D10220BDE8F081012024
:104F700084F83C0000BF36B1042E39D0082E6DD025
:104F80000C2E7DD1A1E07D492068884213D07C4958
:104F9000206888420FD02068B0F1804F0BD079494B
:104FA0002068884207D078492068884203D0774932
:104FB0002068884200D104E041F28B0163A003F035
:104FC000B7FE2946206802F0F7FE2068806940F0AD
:104FD0000800216888612068806920F00400216849
:104FE0008861206880692969084321688861A4E094
:104FF00062492068884213D06149206888420FD0F6
:105000002068B0F1804F0BD05E492068884207D0FD
:105010005D492068884203D05C492068884200D1FD
:1050200004E041F29C0149A003F082FE2946206879
:1050300002F03CFF2068806940F4006021688861CC
:105040002068806920F48060216888612068806918
:10505000296940EA0120216888616EE0474920689B
:10506000884215D046492068884211D02068B0F1A6
:10507000804F0DD043492068884209D0424900E062
:1050800059E02068884203D040492068884200D116
:1050900004E041F2AD012DA003F04AFE294620684C
:1050A00002F082FF2068C06940F008002168C861F2
:1050B0002068C06920F004002168C8612068C069C8
:1050C000296908432168C86137E02C492068884273
:1050D00013D02B49206888420FD02068B0F1804F50
:1050E0000BD028492068884207D027492068884289
:1050F00003D026492068884200D104E041F2BE0175
:1051000012A003F015FE2946206802F0CBFF2068AC
:10511000C06940F400602168C8612068C06920F45B
:1051200080602168C8612068C069296940EA01205F
:105130002168C86101E0012700BF00BF00BF002057
:1051400084F83C0000BF38460FE700002E2E2F5396
:10515000544D3332463178785F48414C5F44726930
:105160007665722F5372632F73746D3332663178A4
:10517000785F68616C5F74696D2E6300002C01407C
:10518000003401400004004000080040000C0040D2
:1051900010B504460CB9012010BD4749206888426B
:1051A0001BD046492068884217D02068B0F1804F54
:1051B00013D04349206888420FD042492068884272
:1051C0000BD041492068884207D040492068884276
:1051D00003D03F492068884200D104E040F22C51BE
:1051E0003CA003F0A5FDA06858B1A068102808D025
:1051F000A068202805D0A068402802D0A0686028B8
:1052000000D104E040F22D5132A003F091FD20695D
:1052100038B12069B0F5807F03D02069B0F5007FF8
:1052200000D104E040F22E512AA003F081FDE06895
:1052300020B1E068B0F5803F00D204E040F22F5189
:1052400024A003F075FDA06910B1A069802800D1E9
:1052500004E04FF4A6611FA003F06AFD94F83D003E
:1052600028B9002084F83C00204600F04BF80220CA
:1052700084F83D00211D206802F0DCFC012084F848
:10528000460000BF84F83E0001213F200155402028
:1052900001554120015500BF00BF012084F84200A4
:1052A00043200155442001554520015500BF0120F0
:1052B00084F83D0000206FE7002C014000340140DD
:1052C0000004004000080040000C004000100040B6
:1052D000001400402E2E2F53544D3332463178782F
:1052E0005F48414C5F4472697665722F5372632F39
:1052F00073746D3332663178785F68616C5F74699E
:105300006D2E63007047704770B504460D465A49CC
:105310002068884207D1002D3CD0042D3AD0082DBA
:1053200038D00C2D36D055492068884206D18DB32F
:10533000042D2FD0082D2DD00C2D2BD02068B0F1AE
:10534000804F06D135B3042D24D0082D22D00C2D4A
:1053500020D04B492068884206D1DDB1042D19D0F8
:10536000082D17D00C2D15D046492068884206D14B
:1053700085B1042D0ED0082D0CD00C2D0AD0424939
:105380002068884207D12DB1042D03D0082D01D00B
:105390000C2D00D104E040F2B3513CA003F0C8FC56
:1053A00015B994F83E000BE0042D02D13F20005DBA
:1053B00006E0082D02D14020005D01E04120005DA3
:1053C000012801D0012070BD1DB9022084F83E00E3
:1053D0000EE0042D03D102213F20015508E0082DE5
:1053E00003D102214020015502E002214120015554
:1053F00001222946206802F06BFC1F492068884280
:1054000003D01E492068884201D1012000E000201D
:1054100028B12068406C40F4004021684864164977
:105420002068884213D01549206888420FD0206830
:10543000B0F1804F0BD012492068884207D0114943
:105440002068884203D01049206888420CD1206827
:10545000806800F00706062E0CD02068006840F037
:1054600001002168086005E02068006840F0010044
:10547000216808600020A6E7002C014000340140AC
:105480000004004000080040000C00402E2E2F5366
:10549000544D3332463178785F48414C5F447269ED
:1054A0007665722F5372632F73746D333266317861
:1054B000785F68616C5F74696D2E630070B5044637
:1054C0003149206888425DD130480088401C2F490E
:1054D00008802F480078401C2D4908702D4800880E
:1054E000002804DD2B480088401E2A4908802A48ED
:1054F000007858B128480078012807D0264800785D
:10550000022803D024480078032801D1FBF72AFFA2
:105510002148007818B120480078032802D10120E2
:105520001E4908701C480078012801D1FBF7D8F902
:1055300017480078022823DD002015490870FBF782
:1055400003FF054616480168284607F0FDF8144990
:10555000086014480078401C12490870084600781A
:1055600032280DD110490E48006807F05BF90F4949
:10557000086000200A4908600A49087006F036F9F8
:1055800003F0DAFD70BD00000010004004010020AF
:10559000FD000020FE00002039010020070100204E
:1055A000F8000020FC0000200000484220010020FC
:1055B00070B504460D46002635B1042D25D0082DC2
:1055C00044D00C2D7CD162E044492068884213D03D
:1055D0004349206888420FD02068B0F1804F0BD03B
:1055E00040492068884207D03F492068884203D05C
:1055F0003E492068884200D104E041F2C9513CA0F4
:1056000003F096FB2068466B64E0344920688842CA
:1056100013D03349206888420FD02068B0F1804F02
:105620000BD030492068884207D02F492068884233
:1056300003D02E492068884200D104E041F2D351C2
:105640002BA003F075FB2068866B43E0234920689C
:10565000884213D02249206888420FD02068B0F1D8
:10566000804F0BD01F492068884207D01E49206810
:10567000884203D01D492068884200D104E041F2ED
:10568000DE511BA003F054FB2068C66B22E01349D7
:105690002068884213D01249206888420FD02068C1
:1056A000B0F1804F0BD00F492068884207D00E49D7
:1056B0002068884203D00D492068884201D105E066
:1056C00007E041F2E9510AA003F032FB2068066CC2
:1056D00000E000BF00BF304670BD0000002C01405C
:1056E000003401400004004000080040000C00406D
:1056F0002E2E2F53544D3332463178785F48414C2B
:105700005F4472697665722F5372632F73746D33C1
:1057100032663178785F68616C5F74696D2E630002
:105720007047000010B504460CB9012010BDA069F7
:10573000002826D03F492068884207D03E4920688B
:10574000884203D03D492068884200D104E04FF4EC
:10575000B7713BA003F0ECFAA06958B1A069B0F5AD
:10576000807F07D0A069B0F5007F03D0A069B0F5B5
:10577000407F00D11FE040F26F1131A003F0D8FA52
:1057800019E02C49206888420FD02B4920688842B4
:105790000BD02A492068884207D0364920688842C1
:1057A00003D035492068884200D104E040F27311EB
:1057B00023A003F0BDFAA06818B1A068B0F5805F1F
:1057C00000D104E040F275111DA003F0B1FA94F885
:1057D000410028B9002084F84000204600F04EF82F
:1057E000242084F841002068C06820F4005021681B
:1057F000C860204602F0F8FD2068006920F490405F
:10580000216808612068406920F02A002168486109
:105810002068C06840F400502168C86000206064BF
:10582000202084F8410084F842000020606300BF1B
:105830007CE7000000380140004400400048004080
:105840002E2E2F53544D3332463178785F48414CD9
:105850005F4472697665722F5372632F73746D3370
:1058600032663178785F68616C5F756172742E633F
:1058700000000000004C00400050004010B586B011
:105880000446002002900390049005901A49206875
:1058900088422ED100BF1948806940F480401749E2
:1058A00088610846806900F48040019000BF00BF15
:1058B00000BF0846806940F004008861084680699E
:1058C00000F00400019000BF00BF481502900220C4
:1058D00003900320059002A90948FCF7D5FC4FF47A
:1058E0008060029000200390049002A90448FCF715
:1058F000CBFC06B010BD0000003801400010024093
:105900000008014000BFFEE770B505460E460024C2
:1059100000F0D4F8284600F09FF8641C00F026F947
:10592000304600F099F8641C00F020F900F0C6F849
:10593000691CC8B200F090F8641C00F017F9002050
:1059400000F052F8044600F0EDF8204670BD00006B
:1059500010B500200E4908600E48006820F4706001
:105960000C4908600846006840F440700860002058
:105970000949C1F8A801012003F0E2FC0120044913
:10598000086003F0DDFC00200349C1F8AC0110BD44
:10599000AC812142040C01400080214210B500205E
:1059A0000E4908600E48006820F470600C490860D9
:1059B0000846006840F44070086001200949C1F8B9
:1059C000A80103F0BDFC01200449086003F0B8FC05
:1059D00000200449C1F8AC0110BD0000AC81214297
:1059E000040C01400080214270B505460024174890
:1059F000006820F47060154908600846006840F4AB
:105A000000600860002616E00020114908600220AE
:105A100003F096FC01200F49C1F8AC016006040EAA
:105A20000B488438006808B1601CC4B2022003F03F
:105A300087FC701CC6B2082EE6DB15B1FFF788FFA5
:105A400001E0FFF7ABFF204670BD0000040C0140F1
:105A5000AC8121420080214270B5044614480068A0
:105A600020F47060124908600846006840F44070F5
:105A7000086000200F490860002516E0E0090D4984
:105A8000091F08606006040E012003F059FC012084
:105A90000949C1F8AC0103F053FC00200549086036
:105AA000012003F04DFC681CC5B2082DE6DB70BD7B
:105AB000040C0140AC8121420080214210B51648FF
:105AC000006820F47060144908600846006840F4DB
:105AD000407008600120114908601148D0F8280181
